{
	"BLOQUE 1 - Conceptos básicos de Solidity/Tema 6 - Bucles y condicionales/sentencia_if.sol": {
		"sentencia_if": {
			"abi": [
				{
					"inputs": [
						{
							"internalType": "uint256",
							"name": "_numero",
							"type": "uint256"
						}
					],
					"name": "parTresCifras",
					"outputs": [
						{
							"internalType": "bool",
							"name": "",
							"type": "bool"
						}
					],
					"stateMutability": "pure",
					"type": "function"
				},
				{
					"inputs": [
						{
							"internalType": "uint256",
							"name": "_numero",
							"type": "uint256"
						}
					],
					"name": "probarSuerte",
					"outputs": [
						{
							"internalType": "bool",
							"name": "",
							"type": "bool"
						}
					],
					"stateMutability": "pure",
					"type": "function"
				},
				{
					"inputs": [
						{
							"internalType": "int256",
							"name": "_k",
							"type": "int256"
						}
					],
					"name": "valorAbsoluto",
					"outputs": [
						{
							"internalType": "uint256",
							"name": "",
							"type": "uint256"
						}
					],
					"stateMutability": "pure",
					"type": "function"
				},
				{
					"inputs": [
						{
							"internalType": "string",
							"name": "_candidato",
							"type": "string"
						}
					],
					"name": "votar",
					"outputs": [
						{
							"internalType": "string",
							"name": "",
							"type": "string"
						}
					],
					"stateMutability": "pure",
					"type": "function"
				}
			],
			"devdoc": {
				"kind": "dev",
				"methods": {},
				"version": 1
			},
			"evm": {
				"assembly": "    /* \"BLOQUE 1 - Conceptos b\\xc3\\xa1sicos de Solidity/Tema 6 - Bucles y condicionales/sentencia_if.sol\":86:2145  contract sentencia_if{... */\n  mstore(0x40, 0x80)\n  callvalue\n  dup1\n  iszero\n  tag_1\n  jumpi\n  0x00\n  dup1\n  revert\ntag_1:\n  pop\n  dataSize(sub_0)\n  dup1\n  dataOffset(sub_0)\n  0x00\n  codecopy\n  0x00\n  return\nstop\n\nsub_0: assembly {\n        /* \"BLOQUE 1 - Conceptos b\\xc3\\xa1sicos de Solidity/Tema 6 - Bucles y condicionales/sentencia_if.sol\":86:2145  contract sentencia_if{... */\n      mstore(0x40, 0x80)\n      callvalue\n      dup1\n      iszero\n      tag_1\n      jumpi\n      0x00\n      dup1\n      revert\n    tag_1:\n      pop\n      jumpi(tag_2, lt(calldatasize, 0x04))\n      shr(0xe0, calldataload(0x00))\n      dup1\n      0x37eddd17\n      eq\n      tag_3\n      jumpi\n      dup1\n      0x79ac27d4\n      eq\n      tag_4\n      jumpi\n      dup1\n      0x7d825142\n      eq\n      tag_5\n      jumpi\n      dup1\n      0xce3fe641\n      eq\n      tag_6\n      jumpi\n    tag_2:\n      0x00\n      dup1\n      revert\n        /* \"BLOQUE 1 - Conceptos b\\xc3\\xa1sicos de Solidity/Tema 6 - Bucles y condicionales/sentencia_if.sol\":139:527  function probarSuerte(uint _numero) public pure returns(bool){... */\n    tag_3:\n      tag_7\n      0x04\n      dup1\n      calldatasize\n      sub\n      dup2\n      add\n      swap1\n      tag_8\n      swap2\n      swap1\n      tag_9\n      jump\t// in\n    tag_8:\n      tag_10\n      jump\t// in\n    tag_7:\n      mload(0x40)\n      tag_11\n      swap2\n      swap1\n      tag_12\n      jump\t// in\n    tag_11:\n      mload(0x40)\n      dup1\n      swap2\n      sub\n      swap1\n      return\n        /* \"BLOQUE 1 - Conceptos b\\xc3\\xa1sicos de Solidity/Tema 6 - Bucles y condicionales/sentencia_if.sol\":968:1228  function parTresCifras(uint _numero) public pure returns(bool){... */\n    tag_4:\n      tag_13\n      0x04\n      dup1\n      calldatasize\n      sub\n      dup2\n      add\n      swap1\n      tag_14\n      swap2\n      swap1\n      tag_9\n      jump\t// in\n    tag_14:\n      tag_15\n      jump\t// in\n    tag_13:\n      mload(0x40)\n      tag_16\n      swap2\n      swap1\n      tag_12\n      jump\t// in\n    tag_16:\n      mload(0x40)\n      dup1\n      swap2\n      sub\n      swap1\n      return\n        /* \"BLOQUE 1 - Conceptos b\\xc3\\xa1sicos de Solidity/Tema 6 - Bucles y condicionales/sentencia_if.sol\":590:881  function valorAbsoluto(int _k) public pure returns(uint){... */\n    tag_5:\n      tag_17\n      0x04\n      dup1\n      calldatasize\n      sub\n      dup2\n      add\n      swap1\n      tag_18\n      swap2\n      swap1\n      tag_19\n      jump\t// in\n    tag_18:\n      tag_20\n      jump\t// in\n    tag_17:\n      mload(0x40)\n      tag_21\n      swap2\n      swap1\n      tag_22\n      jump\t// in\n    tag_21:\n      mload(0x40)\n      dup1\n      swap2\n      sub\n      swap1\n      return\n        /* \"BLOQUE 1 - Conceptos b\\xc3\\xa1sicos de Solidity/Tema 6 - Bucles y condicionales/sentencia_if.sol\":1312:2138  function votar(string memory _candidato) public pure returns(string memory){... */\n    tag_6:\n      tag_23\n      0x04\n      dup1\n      calldatasize\n      sub\n      dup2\n      add\n      swap1\n      tag_24\n      swap2\n      swap1\n      tag_25\n      jump\t// in\n    tag_24:\n      tag_26\n      jump\t// in\n    tag_23:\n      mload(0x40)\n      tag_27\n      swap2\n      swap1\n      tag_28\n      jump\t// in\n    tag_27:\n      mload(0x40)\n      dup1\n      swap2\n      sub\n      swap1\n      return\n        /* \"BLOQUE 1 - Conceptos b\\xc3\\xa1sicos de Solidity/Tema 6 - Bucles y condicionales/sentencia_if.sol\":139:527  function probarSuerte(uint _numero) public pure returns(bool){... */\n    tag_10:\n        /* \"BLOQUE 1 - Conceptos b\\xc3\\xa1sicos de Solidity/Tema 6 - Bucles y condicionales/sentencia_if.sol\":195:199  bool */\n      0x00\n        /* \"BLOQUE 1 - Conceptos b\\xc3\\xa1sicos de Solidity/Tema 6 - Bucles y condicionales/sentencia_if.sol\":219:231  bool ganador */\n      dup1\n        /* \"BLOQUE 1 - Conceptos b\\xc3\\xa1sicos de Solidity/Tema 6 - Bucles y condicionales/sentencia_if.sol\":255:258  100 */\n      0x64\n        /* \"BLOQUE 1 - Conceptos b\\xc3\\xa1sicos de Solidity/Tema 6 - Bucles y condicionales/sentencia_if.sol\":244:251  _numero */\n      dup4\n        /* \"BLOQUE 1 - Conceptos b\\xc3\\xa1sicos de Solidity/Tema 6 - Bucles y condicionales/sentencia_if.sol\":244:258  _numero == 100 */\n      sub\n        /* \"BLOQUE 1 - Conceptos b\\xc3\\xa1sicos de Solidity/Tema 6 - Bucles y condicionales/sentencia_if.sol\":241:340  if(_numero == 100){... */\n      tag_30\n      jumpi\n        /* \"BLOQUE 1 - Conceptos b\\xc3\\xa1sicos de Solidity/Tema 6 - Bucles y condicionales/sentencia_if.sol\":281:285  true */\n      0x01\n        /* \"BLOQUE 1 - Conceptos b\\xc3\\xa1sicos de Solidity/Tema 6 - Bucles y condicionales/sentencia_if.sol\":273:285  ganador=true */\n      swap1\n      pop\n        /* \"BLOQUE 1 - Conceptos b\\xc3\\xa1sicos de Solidity/Tema 6 - Bucles y condicionales/sentencia_if.sol\":241:340  if(_numero == 100){... */\n      jump(tag_31)\n    tag_30:\n        /* \"BLOQUE 1 - Conceptos b\\xc3\\xa1sicos de Solidity/Tema 6 - Bucles y condicionales/sentencia_if.sol\":324:329  false */\n      0x00\n        /* \"BLOQUE 1 - Conceptos b\\xc3\\xa1sicos de Solidity/Tema 6 - Bucles y condicionales/sentencia_if.sol\":314:329  ganador = false */\n      swap1\n      pop\n        /* \"BLOQUE 1 - Conceptos b\\xc3\\xa1sicos de Solidity/Tema 6 - Bucles y condicionales/sentencia_if.sol\":241:340  if(_numero == 100){... */\n    tag_31:\n        /* \"BLOQUE 1 - Conceptos b\\xc3\\xa1sicos de Solidity/Tema 6 - Bucles y condicionales/sentencia_if.sol\":365:372  ganador */\n      dup1\n        /* \"BLOQUE 1 - Conceptos b\\xc3\\xa1sicos de Solidity/Tema 6 - Bucles y condicionales/sentencia_if.sol\":358:372  return ganador */\n      swap2\n      pop\n      pop\n        /* \"BLOQUE 1 - Conceptos b\\xc3\\xa1sicos de Solidity/Tema 6 - Bucles y condicionales/sentencia_if.sol\":139:527  function probarSuerte(uint _numero) public pure returns(bool){... */\n      swap2\n      swap1\n      pop\n      jump\t// out\n        /* \"BLOQUE 1 - Conceptos b\\xc3\\xa1sicos de Solidity/Tema 6 - Bucles y condicionales/sentencia_if.sol\":968:1228  function parTresCifras(uint _numero) public pure returns(bool){... */\n    tag_15:\n        /* \"BLOQUE 1 - Conceptos b\\xc3\\xa1sicos de Solidity/Tema 6 - Bucles y condicionales/sentencia_if.sol\":1025:1029  bool */\n      0x00\n        /* \"BLOQUE 1 - Conceptos b\\xc3\\xa1sicos de Solidity/Tema 6 - Bucles y condicionales/sentencia_if.sol\":1040:1049  bool flag */\n      dup1\n        /* \"BLOQUE 1 - Conceptos b\\xc3\\xa1sicos de Solidity/Tema 6 - Bucles y condicionales/sentencia_if.sol\":1083:1084  0 */\n      0x00\n        /* \"BLOQUE 1 - Conceptos b\\xc3\\xa1sicos de Solidity/Tema 6 - Bucles y condicionales/sentencia_if.sol\":1080:1081  2 */\n      0x02\n        /* \"BLOQUE 1 - Conceptos b\\xc3\\xa1sicos de Solidity/Tema 6 - Bucles y condicionales/sentencia_if.sol\":1072:1079  _numero */\n      dup5\n        /* \"BLOQUE 1 - Conceptos b\\xc3\\xa1sicos de Solidity/Tema 6 - Bucles y condicionales/sentencia_if.sol\":1072:1081  _numero%2 */\n      tag_33\n      swap2\n      swap1\n      tag_34\n      jump\t// in\n    tag_33:\n        /* \"BLOQUE 1 - Conceptos b\\xc3\\xa1sicos de Solidity/Tema 6 - Bucles y condicionales/sentencia_if.sol\":1072:1084  _numero%2==0 */\n      eq\n        /* \"BLOQUE 1 - Conceptos b\\xc3\\xa1sicos de Solidity/Tema 6 - Bucles y condicionales/sentencia_if.sol\":1071:1101  (_numero%2==0)&&(_numero>=100) */\n      dup1\n      iszero\n      tag_35\n      jumpi\n      pop\n        /* \"BLOQUE 1 - Conceptos b\\xc3\\xa1sicos de Solidity/Tema 6 - Bucles y condicionales/sentencia_if.sol\":1097:1100  100 */\n      0x64\n        /* \"BLOQUE 1 - Conceptos b\\xc3\\xa1sicos de Solidity/Tema 6 - Bucles y condicionales/sentencia_if.sol\":1088:1095  _numero */\n      dup4\n        /* \"BLOQUE 1 - Conceptos b\\xc3\\xa1sicos de Solidity/Tema 6 - Bucles y condicionales/sentencia_if.sol\":1088:1100  _numero>=100 */\n      lt\n      iszero\n        /* \"BLOQUE 1 - Conceptos b\\xc3\\xa1sicos de Solidity/Tema 6 - Bucles y condicionales/sentencia_if.sol\":1071:1101  (_numero%2==0)&&(_numero>=100) */\n    tag_35:\n        /* \"BLOQUE 1 - Conceptos b\\xc3\\xa1sicos de Solidity/Tema 6 - Bucles y condicionales/sentencia_if.sol\":1071:1116  (_numero%2==0)&&(_numero>=100)&&(_numero<999) */\n      dup1\n      iszero\n      tag_36\n      jumpi\n      pop\n        /* \"BLOQUE 1 - Conceptos b\\xc3\\xa1sicos de Solidity/Tema 6 - Bucles y condicionales/sentencia_if.sol\":1112:1115  999 */\n      0x03e7\n        /* \"BLOQUE 1 - Conceptos b\\xc3\\xa1sicos de Solidity/Tema 6 - Bucles y condicionales/sentencia_if.sol\":1104:1111  _numero */\n      dup4\n        /* \"BLOQUE 1 - Conceptos b\\xc3\\xa1sicos de Solidity/Tema 6 - Bucles y condicionales/sentencia_if.sol\":1104:1115  _numero<999 */\n      lt\n        /* \"BLOQUE 1 - Conceptos b\\xc3\\xa1sicos de Solidity/Tema 6 - Bucles y condicionales/sentencia_if.sol\":1071:1116  (_numero%2==0)&&(_numero>=100)&&(_numero<999) */\n    tag_36:\n        /* \"BLOQUE 1 - Conceptos b\\xc3\\xa1sicos de Solidity/Tema 6 - Bucles y condicionales/sentencia_if.sol\":1068:1192  if((_numero%2==0)&&(_numero>=100)&&(_numero<999)){... */\n      iszero\n      tag_37\n      jumpi\n        /* \"BLOQUE 1 - Conceptos b\\xc3\\xa1sicos de Solidity/Tema 6 - Bucles y condicionales/sentencia_if.sol\":1138:1142  true */\n      0x01\n        /* \"BLOQUE 1 - Conceptos b\\xc3\\xa1sicos de Solidity/Tema 6 - Bucles y condicionales/sentencia_if.sol\":1131:1142  flag = true */\n      swap1\n      pop\n        /* \"BLOQUE 1 - Conceptos b\\xc3\\xa1sicos de Solidity/Tema 6 - Bucles y condicionales/sentencia_if.sol\":1068:1192  if((_numero%2==0)&&(_numero>=100)&&(_numero<999)){... */\n      jump(tag_38)\n    tag_37:\n        /* \"BLOQUE 1 - Conceptos b\\xc3\\xa1sicos de Solidity/Tema 6 - Bucles y condicionales/sentencia_if.sol\":1176:1181  false */\n      0x00\n        /* \"BLOQUE 1 - Conceptos b\\xc3\\xa1sicos de Solidity/Tema 6 - Bucles y condicionales/sentencia_if.sol\":1171:1181  flag=false */\n      swap1\n      pop\n        /* \"BLOQUE 1 - Conceptos b\\xc3\\xa1sicos de Solidity/Tema 6 - Bucles y condicionales/sentencia_if.sol\":1068:1192  if((_numero%2==0)&&(_numero>=100)&&(_numero<999)){... */\n    tag_38:\n        /* \"BLOQUE 1 - Conceptos b\\xc3\\xa1sicos de Solidity/Tema 6 - Bucles y condicionales/sentencia_if.sol\":1217:1221  flag */\n      dup1\n        /* \"BLOQUE 1 - Conceptos b\\xc3\\xa1sicos de Solidity/Tema 6 - Bucles y condicionales/sentencia_if.sol\":1210:1221  return flag */\n      swap2\n      pop\n      pop\n        /* \"BLOQUE 1 - Conceptos b\\xc3\\xa1sicos de Solidity/Tema 6 - Bucles y condicionales/sentencia_if.sol\":968:1228  function parTresCifras(uint _numero) public pure returns(bool){... */\n      swap2\n      swap1\n      pop\n      jump\t// out\n        /* \"BLOQUE 1 - Conceptos b\\xc3\\xa1sicos de Solidity/Tema 6 - Bucles y condicionales/sentencia_if.sol\":590:881  function valorAbsoluto(int _k) public pure returns(uint){... */\n    tag_20:\n        /* \"BLOQUE 1 - Conceptos b\\xc3\\xa1sicos de Solidity/Tema 6 - Bucles y condicionales/sentencia_if.sol\":641:645  uint */\n      0x00\n        /* \"BLOQUE 1 - Conceptos b\\xc3\\xa1sicos de Solidity/Tema 6 - Bucles y condicionales/sentencia_if.sol\":665:691  uint valor_absoluto_numero */\n      dup1\n        /* \"BLOQUE 1 - Conceptos b\\xc3\\xa1sicos de Solidity/Tema 6 - Bucles y condicionales/sentencia_if.sol\":707:708  0 */\n      0x00\n        /* \"BLOQUE 1 - Conceptos b\\xc3\\xa1sicos de Solidity/Tema 6 - Bucles y condicionales/sentencia_if.sol\":704:706  _k */\n      dup4\n        /* \"BLOQUE 1 - Conceptos b\\xc3\\xa1sicos de Solidity/Tema 6 - Bucles y condicionales/sentencia_if.sol\":704:708  _k<0 */\n      slt\n        /* \"BLOQUE 1 - Conceptos b\\xc3\\xa1sicos de Solidity/Tema 6 - Bucles y condicionales/sentencia_if.sol\":701:828  if(_k<0){... */\n      iszero\n      tag_40\n      jumpi\n        /* \"BLOQUE 1 - Conceptos b\\xc3\\xa1sicos de Solidity/Tema 6 - Bucles y condicionales/sentencia_if.sol\":753:755  _k */\n      dup3\n        /* \"BLOQUE 1 - Conceptos b\\xc3\\xa1sicos de Solidity/Tema 6 - Bucles y condicionales/sentencia_if.sol\":752:755  -_k */\n      tag_41\n      swap1\n      tag_42\n      jump\t// in\n    tag_41:\n        /* \"BLOQUE 1 - Conceptos b\\xc3\\xa1sicos de Solidity/Tema 6 - Bucles y condicionales/sentencia_if.sol\":723:756  valor_absoluto_numero = uint(-_k) */\n      swap1\n      pop\n        /* \"BLOQUE 1 - Conceptos b\\xc3\\xa1sicos de Solidity/Tema 6 - Bucles y condicionales/sentencia_if.sol\":701:828  if(_k<0){... */\n      jump(tag_43)\n    tag_40:\n        /* \"BLOQUE 1 - Conceptos b\\xc3\\xa1sicos de Solidity/Tema 6 - Bucles y condicionales/sentencia_if.sol\":814:816  _k */\n      dup3\n        /* \"BLOQUE 1 - Conceptos b\\xc3\\xa1sicos de Solidity/Tema 6 - Bucles y condicionales/sentencia_if.sol\":785:817  valor_absoluto_numero = uint(_k) */\n      swap1\n      pop\n        /* \"BLOQUE 1 - Conceptos b\\xc3\\xa1sicos de Solidity/Tema 6 - Bucles y condicionales/sentencia_if.sol\":701:828  if(_k<0){... */\n    tag_43:\n        /* \"BLOQUE 1 - Conceptos b\\xc3\\xa1sicos de Solidity/Tema 6 - Bucles y condicionales/sentencia_if.sol\":853:874  valor_absoluto_numero */\n      dup1\n        /* \"BLOQUE 1 - Conceptos b\\xc3\\xa1sicos de Solidity/Tema 6 - Bucles y condicionales/sentencia_if.sol\":846:874  return valor_absoluto_numero */\n      swap2\n      pop\n      pop\n        /* \"BLOQUE 1 - Conceptos b\\xc3\\xa1sicos de Solidity/Tema 6 - Bucles y condicionales/sentencia_if.sol\":590:881  function valorAbsoluto(int _k) public pure returns(uint){... */\n      swap2\n      swap1\n      pop\n      jump\t// out\n        /* \"BLOQUE 1 - Conceptos b\\xc3\\xa1sicos de Solidity/Tema 6 - Bucles y condicionales/sentencia_if.sol\":1312:2138  function votar(string memory _candidato) public pure returns(string memory){... */\n    tag_26:\n        /* \"BLOQUE 1 - Conceptos b\\xc3\\xa1sicos de Solidity/Tema 6 - Bucles y condicionales/sentencia_if.sol\":1373:1386  string memory */\n      0x60\n        /* \"BLOQUE 1 - Conceptos b\\xc3\\xa1sicos de Solidity/Tema 6 - Bucles y condicionales/sentencia_if.sol\":1406:1427  string memory mensaje */\n      dup1\n        /* \"BLOQUE 1 - Conceptos b\\xc3\\xa1sicos de Solidity/Tema 6 - Bucles y condicionales/sentencia_if.sol\":1500:1524  abi.encodePacked(\"Joan\") */\n      add(0x20, mload(0x40))\n      tag_45\n      swap1\n      tag_46\n      jump\t// in\n    tag_45:\n      mload(0x40)\n      0x20\n      dup2\n      dup4\n      sub\n      sub\n      dup2\n      mstore\n      swap1\n      0x40\n      mstore\n        /* \"BLOQUE 1 - Conceptos b\\xc3\\xa1sicos de Solidity/Tema 6 - Bucles y condicionales/sentencia_if.sol\":1490:1525  keccak256(abi.encodePacked(\"Joan\")) */\n      dup1\n      mload\n      swap1\n      0x20\n      add\n      keccak256\n        /* \"BLOQUE 1 - Conceptos b\\xc3\\xa1sicos de Solidity/Tema 6 - Bucles y condicionales/sentencia_if.sol\":1476:1486  _candidato */\n      dup4\n        /* \"BLOQUE 1 - Conceptos b\\xc3\\xa1sicos de Solidity/Tema 6 - Bucles y condicionales/sentencia_if.sol\":1459:1487  abi.encodePacked(_candidato) */\n      add(0x20, mload(0x40))\n      tag_47\n      swap2\n      swap1\n      tag_48\n      jump\t// in\n    tag_47:\n      mload(0x40)\n      0x20\n      dup2\n      dup4\n      sub\n      sub\n      dup2\n      mstore\n      swap1\n      0x40\n      mstore\n        /* \"BLOQUE 1 - Conceptos b\\xc3\\xa1sicos de Solidity/Tema 6 - Bucles y condicionales/sentencia_if.sol\":1449:1488  keccak256(abi.encodePacked(_candidato)) */\n      dup1\n      mload\n      swap1\n      0x20\n      add\n      keccak256\n        /* \"BLOQUE 1 - Conceptos b\\xc3\\xa1sicos de Solidity/Tema 6 - Bucles y condicionales/sentencia_if.sol\":1449:1525  keccak256(abi.encodePacked(_candidato))==keccak256(abi.encodePacked(\"Joan\")) */\n      sub\n        /* \"BLOQUE 1 - Conceptos b\\xc3\\xa1sicos de Solidity/Tema 6 - Bucles y condicionales/sentencia_if.sol\":1446:2099  if(keccak256(abi.encodePacked(_candidato))==keccak256(abi.encodePacked(\"Joan\"))){... */\n      tag_49\n      jumpi\n        /* \"BLOQUE 1 - Conceptos b\\xc3\\xa1sicos de Solidity/Tema 6 - Bucles y condicionales/sentencia_if.sol\":1540:1583  mensaje = \"Has votado correctamente a Joan\" */\n      mload(0x40)\n      dup1\n      0x40\n      add\n      0x40\n      mstore\n      dup1\n      0x1f\n      dup2\n      mstore\n      0x20\n      add\n      0x48617320766f7461646f20636f7272656374616d656e74652061204a6f616e00\n      dup2\n      mstore\n      pop\n      swap1\n      pop\n        /* \"BLOQUE 1 - Conceptos b\\xc3\\xa1sicos de Solidity/Tema 6 - Bucles y condicionales/sentencia_if.sol\":1446:2099  if(keccak256(abi.encodePacked(_candidato))==keccak256(abi.encodePacked(\"Joan\"))){... */\n      jump(tag_50)\n    tag_49:\n        /* \"BLOQUE 1 - Conceptos b\\xc3\\xa1sicos de Solidity/Tema 6 - Bucles y condicionales/sentencia_if.sol\":1666:1693  abi.encodePacked(\"Gabriel\") */\n      add(0x20, mload(0x40))\n      tag_51\n      swap1\n      tag_52\n      jump\t// in\n    tag_51:\n      mload(0x40)\n      0x20\n      dup2\n      dup4\n      sub\n      sub\n      dup2\n      mstore\n      swap1\n      0x40\n      mstore\n        /* \"BLOQUE 1 - Conceptos b\\xc3\\xa1sicos de Solidity/Tema 6 - Bucles y condicionales/sentencia_if.sol\":1656:1694  keccak256(abi.encodePacked(\"Gabriel\")) */\n      dup1\n      mload\n      swap1\n      0x20\n      add\n      keccak256\n        /* \"BLOQUE 1 - Conceptos b\\xc3\\xa1sicos de Solidity/Tema 6 - Bucles y condicionales/sentencia_if.sol\":1642:1652  _candidato */\n      dup4\n        /* \"BLOQUE 1 - Conceptos b\\xc3\\xa1sicos de Solidity/Tema 6 - Bucles y condicionales/sentencia_if.sol\":1625:1653  abi.encodePacked(_candidato) */\n      add(0x20, mload(0x40))\n      tag_53\n      swap2\n      swap1\n      tag_48\n      jump\t// in\n    tag_53:\n      mload(0x40)\n      0x20\n      dup2\n      dup4\n      sub\n      sub\n      dup2\n      mstore\n      swap1\n      0x40\n      mstore\n        /* \"BLOQUE 1 - Conceptos b\\xc3\\xa1sicos de Solidity/Tema 6 - Bucles y condicionales/sentencia_if.sol\":1615:1654  keccak256(abi.encodePacked(_candidato)) */\n      dup1\n      mload\n      swap1\n      0x20\n      add\n      keccak256\n        /* \"BLOQUE 1 - Conceptos b\\xc3\\xa1sicos de Solidity/Tema 6 - Bucles y condicionales/sentencia_if.sol\":1615:1694  keccak256(abi.encodePacked(_candidato))==keccak256(abi.encodePacked(\"Gabriel\")) */\n      sub\n        /* \"BLOQUE 1 - Conceptos b\\xc3\\xa1sicos de Solidity/Tema 6 - Bucles y condicionales/sentencia_if.sol\":1612:2089  if(keccak256(abi.encodePacked(_candidato))==keccak256(abi.encodePacked(\"Gabriel\"))){... */\n      tag_54\n      jumpi\n        /* \"BLOQUE 1 - Conceptos b\\xc3\\xa1sicos de Solidity/Tema 6 - Bucles y condicionales/sentencia_if.sol\":1713:1759  mensaje = \"Has votado correctamente a Gabriel\" */\n      mload(0x40)\n      dup1\n      0x60\n      add\n      0x40\n      mstore\n      dup1\n      0x22\n      dup2\n      mstore\n      0x20\n      add\n      data_4724cd3cf44a41e564a8240e5892071af5672f764b9287ff9355d6aa2c023925\n      0x22\n      swap2\n      codecopy\n      swap1\n      pop\n        /* \"BLOQUE 1 - Conceptos b\\xc3\\xa1sicos de Solidity/Tema 6 - Bucles y condicionales/sentencia_if.sol\":1612:2089  if(keccak256(abi.encodePacked(_candidato))==keccak256(abi.encodePacked(\"Gabriel\"))){... */\n      jump(tag_55)\n    tag_54:\n        /* \"BLOQUE 1 - Conceptos b\\xc3\\xa1sicos de Solidity/Tema 6 - Bucles y condicionales/sentencia_if.sol\":1850:1875  abi.encodePacked(\"Maria\") */\n      add(0x20, mload(0x40))\n      tag_56\n      swap1\n      tag_57\n      jump\t// in\n    tag_56:\n      mload(0x40)\n      0x20\n      dup2\n      dup4\n      sub\n      sub\n      dup2\n      mstore\n      swap1\n      0x40\n      mstore\n        /* \"BLOQUE 1 - Conceptos b\\xc3\\xa1sicos de Solidity/Tema 6 - Bucles y condicionales/sentencia_if.sol\":1840:1876  keccak256(abi.encodePacked(\"Maria\")) */\n      dup1\n      mload\n      swap1\n      0x20\n      add\n      keccak256\n        /* \"BLOQUE 1 - Conceptos b\\xc3\\xa1sicos de Solidity/Tema 6 - Bucles y condicionales/sentencia_if.sol\":1826:1836  _candidato */\n      dup4\n        /* \"BLOQUE 1 - Conceptos b\\xc3\\xa1sicos de Solidity/Tema 6 - Bucles y condicionales/sentencia_if.sol\":1809:1837  abi.encodePacked(_candidato) */\n      add(0x20, mload(0x40))\n      tag_58\n      swap2\n      swap1\n      tag_48\n      jump\t// in\n    tag_58:\n      mload(0x40)\n      0x20\n      dup2\n      dup4\n      sub\n      sub\n      dup2\n      mstore\n      swap1\n      0x40\n      mstore\n        /* \"BLOQUE 1 - Conceptos b\\xc3\\xa1sicos de Solidity/Tema 6 - Bucles y condicionales/sentencia_if.sol\":1799:1838  keccak256(abi.encodePacked(_candidato)) */\n      dup1\n      mload\n      swap1\n      0x20\n      add\n      keccak256\n        /* \"BLOQUE 1 - Conceptos b\\xc3\\xa1sicos de Solidity/Tema 6 - Bucles y condicionales/sentencia_if.sol\":1799:1876  keccak256(abi.encodePacked(_candidato))==keccak256(abi.encodePacked(\"Maria\")) */\n      sub\n        /* \"BLOQUE 1 - Conceptos b\\xc3\\xa1sicos de Solidity/Tema 6 - Bucles y condicionales/sentencia_if.sol\":1796:2075  if(keccak256(abi.encodePacked(_candidato))==keccak256(abi.encodePacked(\"Maria\"))){... */\n      tag_59\n      jumpi\n        /* \"BLOQUE 1 - Conceptos b\\xc3\\xa1sicos de Solidity/Tema 6 - Bucles y condicionales/sentencia_if.sol\":1899:1943  mensaje = \"Has votado correctamente a Maria\" */\n      mload(0x40)\n      dup1\n      0x40\n      add\n      0x40\n      mstore\n      dup1\n      0x20\n      dup2\n      mstore\n      0x20\n      add\n      0x48617320766f7461646f20636f7272656374616d656e74652061204d61726961\n      dup2\n      mstore\n      pop\n      swap1\n      pop\n        /* \"BLOQUE 1 - Conceptos b\\xc3\\xa1sicos de Solidity/Tema 6 - Bucles y condicionales/sentencia_if.sol\":1796:2075  if(keccak256(abi.encodePacked(_candidato))==keccak256(abi.encodePacked(\"Maria\"))){... */\n      jump(tag_60)\n    tag_59:\n        /* \"BLOQUE 1 - Conceptos b\\xc3\\xa1sicos de Solidity/Tema 6 - Bucles y condicionales/sentencia_if.sol\":1988:2056  mensaje = \"Has votado a un candidato que no est\\xC3\\xA1 en la lista\" */\n      mload(0x40)\n      dup1\n      0x60\n      add\n      0x40\n      mstore\n      dup1\n      0x32\n      dup2\n      mstore\n      0x20\n      add\n      data_3ab5694fbf99d3183669d718fed8cbe2eeffc3e99459612ed464da9c99db37af\n      0x32\n      swap2\n      codecopy\n      swap1\n      pop\n        /* \"BLOQUE 1 - Conceptos b\\xc3\\xa1sicos de Solidity/Tema 6 - Bucles y condicionales/sentencia_if.sol\":1796:2075  if(keccak256(abi.encodePacked(_candidato))==keccak256(abi.encodePacked(\"Maria\"))){... */\n    tag_60:\n        /* \"BLOQUE 1 - Conceptos b\\xc3\\xa1sicos de Solidity/Tema 6 - Bucles y condicionales/sentencia_if.sol\":1612:2089  if(keccak256(abi.encodePacked(_candidato))==keccak256(abi.encodePacked(\"Gabriel\"))){... */\n    tag_55:\n        /* \"BLOQUE 1 - Conceptos b\\xc3\\xa1sicos de Solidity/Tema 6 - Bucles y condicionales/sentencia_if.sol\":1446:2099  if(keccak256(abi.encodePacked(_candidato))==keccak256(abi.encodePacked(\"Joan\"))){... */\n    tag_50:\n        /* \"BLOQUE 1 - Conceptos b\\xc3\\xa1sicos de Solidity/Tema 6 - Bucles y condicionales/sentencia_if.sol\":2124:2131  mensaje */\n      dup1\n        /* \"BLOQUE 1 - Conceptos b\\xc3\\xa1sicos de Solidity/Tema 6 - Bucles y condicionales/sentencia_if.sol\":2117:2131  return mensaje */\n      swap2\n      pop\n      pop\n        /* \"BLOQUE 1 - Conceptos b\\xc3\\xa1sicos de Solidity/Tema 6 - Bucles y condicionales/sentencia_if.sol\":1312:2138  function votar(string memory _candidato) public pure returns(string memory){... */\n      swap2\n      swap1\n      pop\n      jump\t// out\n        /* \"#utility.yul\":7:82   */\n    tag_61:\n        /* \"#utility.yul\":40:46   */\n      0x00\n        /* \"#utility.yul\":73:75   */\n      0x40\n        /* \"#utility.yul\":67:76   */\n      mload\n        /* \"#utility.yul\":57:76   */\n      swap1\n      pop\n        /* \"#utility.yul\":7:82   */\n      swap1\n      jump\t// out\n        /* \"#utility.yul\":88:205   */\n    tag_62:\n        /* \"#utility.yul\":197:198   */\n      0x00\n        /* \"#utility.yul\":194:195   */\n      dup1\n        /* \"#utility.yul\":187:199   */\n      revert\n        /* \"#utility.yul\":211:328   */\n    tag_63:\n        /* \"#utility.yul\":320:321   */\n      0x00\n        /* \"#utility.yul\":317:318   */\n      dup1\n        /* \"#utility.yul\":310:322   */\n      revert\n        /* \"#utility.yul\":334:411   */\n    tag_64:\n        /* \"#utility.yul\":371:378   */\n      0x00\n        /* \"#utility.yul\":400:405   */\n      dup2\n        /* \"#utility.yul\":389:405   */\n      swap1\n      pop\n        /* \"#utility.yul\":334:411   */\n      swap2\n      swap1\n      pop\n      jump\t// out\n        /* \"#utility.yul\":417:539   */\n    tag_65:\n        /* \"#utility.yul\":490:514   */\n      tag_103\n        /* \"#utility.yul\":508:513   */\n      dup2\n        /* \"#utility.yul\":490:514   */\n      tag_64\n      jump\t// in\n    tag_103:\n        /* \"#utility.yul\":483:488   */\n      dup2\n        /* \"#utility.yul\":480:515   */\n      eq\n        /* \"#utility.yul\":470:533   */\n      tag_104\n      jumpi\n        /* \"#utility.yul\":529:530   */\n      0x00\n        /* \"#utility.yul\":526:527   */\n      dup1\n        /* \"#utility.yul\":519:531   */\n      revert\n        /* \"#utility.yul\":470:533   */\n    tag_104:\n        /* \"#utility.yul\":417:539   */\n      pop\n      jump\t// out\n        /* \"#utility.yul\":545:684   */\n    tag_66:\n        /* \"#utility.yul\":591:596   */\n      0x00\n        /* \"#utility.yul\":629:635   */\n      dup2\n        /* \"#utility.yul\":616:636   */\n      calldataload\n        /* \"#utility.yul\":607:636   */\n      swap1\n      pop\n        /* \"#utility.yul\":645:678   */\n      tag_106\n        /* \"#utility.yul\":672:677   */\n      dup2\n        /* \"#utility.yul\":645:678   */\n      tag_65\n      jump\t// in\n    tag_106:\n        /* \"#utility.yul\":545:684   */\n      swap3\n      swap2\n      pop\n      pop\n      jump\t// out\n        /* \"#utility.yul\":690:1019   */\n    tag_9:\n        /* \"#utility.yul\":749:755   */\n      0x00\n        /* \"#utility.yul\":798:800   */\n      0x20\n        /* \"#utility.yul\":786:795   */\n      dup3\n        /* \"#utility.yul\":777:784   */\n      dup5\n        /* \"#utility.yul\":773:796   */\n      sub\n        /* \"#utility.yul\":769:801   */\n      slt\n        /* \"#utility.yul\":766:885   */\n      iszero\n      tag_108\n      jumpi\n        /* \"#utility.yul\":804:883   */\n      tag_109\n      tag_62\n      jump\t// in\n    tag_109:\n        /* \"#utility.yul\":766:885   */\n    tag_108:\n        /* \"#utility.yul\":924:925   */\n      0x00\n        /* \"#utility.yul\":949:1002   */\n      tag_110\n        /* \"#utility.yul\":994:1001   */\n      dup5\n        /* \"#utility.yul\":985:991   */\n      dup3\n        /* \"#utility.yul\":974:983   */\n      dup6\n        /* \"#utility.yul\":970:992   */\n      add\n        /* \"#utility.yul\":949:1002   */\n      tag_66\n      jump\t// in\n    tag_110:\n        /* \"#utility.yul\":939:1002   */\n      swap2\n      pop\n        /* \"#utility.yul\":895:1012   */\n      pop\n        /* \"#utility.yul\":690:1019   */\n      swap3\n      swap2\n      pop\n      pop\n      jump\t// out\n        /* \"#utility.yul\":1025:1115   */\n    tag_67:\n        /* \"#utility.yul\":1059:1066   */\n      0x00\n        /* \"#utility.yul\":1102:1107   */\n      dup2\n        /* \"#utility.yul\":1095:1108   */\n      iszero\n        /* \"#utility.yul\":1088:1109   */\n      iszero\n        /* \"#utility.yul\":1077:1109   */\n      swap1\n      pop\n        /* \"#utility.yul\":1025:1115   */\n      swap2\n      swap1\n      pop\n      jump\t// out\n        /* \"#utility.yul\":1121:1230   */\n    tag_68:\n        /* \"#utility.yul\":1202:1223   */\n      tag_113\n        /* \"#utility.yul\":1217:1222   */\n      dup2\n        /* \"#utility.yul\":1202:1223   */\n      tag_67\n      jump\t// in\n    tag_113:\n        /* \"#utility.yul\":1197:1200   */\n      dup3\n        /* \"#utility.yul\":1190:1224   */\n      mstore\n        /* \"#utility.yul\":1121:1230   */\n      pop\n      pop\n      jump\t// out\n        /* \"#utility.yul\":1236:1446   */\n    tag_12:\n        /* \"#utility.yul\":1323:1327   */\n      0x00\n        /* \"#utility.yul\":1361:1363   */\n      0x20\n        /* \"#utility.yul\":1350:1359   */\n      dup3\n        /* \"#utility.yul\":1346:1364   */\n      add\n        /* \"#utility.yul\":1338:1364   */\n      swap1\n      pop\n        /* \"#utility.yul\":1374:1439   */\n      tag_115\n        /* \"#utility.yul\":1436:1437   */\n      0x00\n        /* \"#utility.yul\":1425:1434   */\n      dup4\n        /* \"#utility.yul\":1421:1438   */\n      add\n        /* \"#utility.yul\":1412:1418   */\n      dup5\n        /* \"#utility.yul\":1374:1439   */\n      tag_68\n      jump\t// in\n    tag_115:\n        /* \"#utility.yul\":1236:1446   */\n      swap3\n      swap2\n      pop\n      pop\n      jump\t// out\n        /* \"#utility.yul\":1452:1528   */\n    tag_69:\n        /* \"#utility.yul\":1488:1495   */\n      0x00\n        /* \"#utility.yul\":1517:1522   */\n      dup2\n        /* \"#utility.yul\":1506:1522   */\n      swap1\n      pop\n        /* \"#utility.yul\":1452:1528   */\n      swap2\n      swap1\n      pop\n      jump\t// out\n        /* \"#utility.yul\":1534:1654   */\n    tag_70:\n        /* \"#utility.yul\":1606:1629   */\n      tag_118\n        /* \"#utility.yul\":1623:1628   */\n      dup2\n        /* \"#utility.yul\":1606:1629   */\n      tag_69\n      jump\t// in\n    tag_118:\n        /* \"#utility.yul\":1599:1604   */\n      dup2\n        /* \"#utility.yul\":1596:1630   */\n      eq\n        /* \"#utility.yul\":1586:1648   */\n      tag_119\n      jumpi\n        /* \"#utility.yul\":1644:1645   */\n      0x00\n        /* \"#utility.yul\":1641:1642   */\n      dup1\n        /* \"#utility.yul\":1634:1646   */\n      revert\n        /* \"#utility.yul\":1586:1648   */\n    tag_119:\n        /* \"#utility.yul\":1534:1654   */\n      pop\n      jump\t// out\n        /* \"#utility.yul\":1660:1797   */\n    tag_71:\n        /* \"#utility.yul\":1705:1710   */\n      0x00\n        /* \"#utility.yul\":1743:1749   */\n      dup2\n        /* \"#utility.yul\":1730:1750   */\n      calldataload\n        /* \"#utility.yul\":1721:1750   */\n      swap1\n      pop\n        /* \"#utility.yul\":1759:1791   */\n      tag_121\n        /* \"#utility.yul\":1785:1790   */\n      dup2\n        /* \"#utility.yul\":1759:1791   */\n      tag_70\n      jump\t// in\n    tag_121:\n        /* \"#utility.yul\":1660:1797   */\n      swap3\n      swap2\n      pop\n      pop\n      jump\t// out\n        /* \"#utility.yul\":1803:2130   */\n    tag_19:\n        /* \"#utility.yul\":1861:1867   */\n      0x00\n        /* \"#utility.yul\":1910:1912   */\n      0x20\n        /* \"#utility.yul\":1898:1907   */\n      dup3\n        /* \"#utility.yul\":1889:1896   */\n      dup5\n        /* \"#utility.yul\":1885:1908   */\n      sub\n        /* \"#utility.yul\":1881:1913   */\n      slt\n        /* \"#utility.yul\":1878:1997   */\n      iszero\n      tag_123\n      jumpi\n        /* \"#utility.yul\":1916:1995   */\n      tag_124\n      tag_62\n      jump\t// in\n    tag_124:\n        /* \"#utility.yul\":1878:1997   */\n    tag_123:\n        /* \"#utility.yul\":2036:2037   */\n      0x00\n        /* \"#utility.yul\":2061:2113   */\n      tag_125\n        /* \"#utility.yul\":2105:2112   */\n      dup5\n        /* \"#utility.yul\":2096:2102   */\n      dup3\n        /* \"#utility.yul\":2085:2094   */\n      dup6\n        /* \"#utility.yul\":2081:2103   */\n      add\n        /* \"#utility.yul\":2061:2113   */\n      tag_71\n      jump\t// in\n    tag_125:\n        /* \"#utility.yul\":2051:2113   */\n      swap2\n      pop\n        /* \"#utility.yul\":2007:2123   */\n      pop\n        /* \"#utility.yul\":1803:2130   */\n      swap3\n      swap2\n      pop\n      pop\n      jump\t// out\n        /* \"#utility.yul\":2136:2254   */\n    tag_72:\n        /* \"#utility.yul\":2223:2247   */\n      tag_127\n        /* \"#utility.yul\":2241:2246   */\n      dup2\n        /* \"#utility.yul\":2223:2247   */\n      tag_64\n      jump\t// in\n    tag_127:\n        /* \"#utility.yul\":2218:2221   */\n      dup3\n        /* \"#utility.yul\":2211:2248   */\n      mstore\n        /* \"#utility.yul\":2136:2254   */\n      pop\n      pop\n      jump\t// out\n        /* \"#utility.yul\":2260:2482   */\n    tag_22:\n        /* \"#utility.yul\":2353:2357   */\n      0x00\n        /* \"#utility.yul\":2391:2393   */\n      0x20\n        /* \"#utility.yul\":2380:2389   */\n      dup3\n        /* \"#utility.yul\":2376:2394   */\n      add\n        /* \"#utility.yul\":2368:2394   */\n      swap1\n      pop\n        /* \"#utility.yul\":2404:2475   */\n      tag_129\n        /* \"#utility.yul\":2472:2473   */\n      0x00\n        /* \"#utility.yul\":2461:2470   */\n      dup4\n        /* \"#utility.yul\":2457:2474   */\n      add\n        /* \"#utility.yul\":2448:2454   */\n      dup5\n        /* \"#utility.yul\":2404:2475   */\n      tag_72\n      jump\t// in\n    tag_129:\n        /* \"#utility.yul\":2260:2482   */\n      swap3\n      swap2\n      pop\n      pop\n      jump\t// out\n        /* \"#utility.yul\":2488:2605   */\n    tag_73:\n        /* \"#utility.yul\":2597:2598   */\n      0x00\n        /* \"#utility.yul\":2594:2595   */\n      dup1\n        /* \"#utility.yul\":2587:2599   */\n      revert\n        /* \"#utility.yul\":2611:2728   */\n    tag_74:\n        /* \"#utility.yul\":2720:2721   */\n      0x00\n        /* \"#utility.yul\":2717:2718   */\n      dup1\n        /* \"#utility.yul\":2710:2722   */\n      revert\n        /* \"#utility.yul\":2734:2836   */\n    tag_75:\n        /* \"#utility.yul\":2775:2781   */\n      0x00\n        /* \"#utility.yul\":2826:2828   */\n      0x1f\n        /* \"#utility.yul\":2822:2829   */\n      not\n        /* \"#utility.yul\":2817:2819   */\n      0x1f\n        /* \"#utility.yul\":2810:2815   */\n      dup4\n        /* \"#utility.yul\":2806:2820   */\n      add\n        /* \"#utility.yul\":2802:2830   */\n      and\n        /* \"#utility.yul\":2792:2830   */\n      swap1\n      pop\n        /* \"#utility.yul\":2734:2836   */\n      swap2\n      swap1\n      pop\n      jump\t// out\n        /* \"#utility.yul\":2842:3022   */\n    tag_76:\n        /* \"#utility.yul\":2890:2967   */\n      0x4e487b7100000000000000000000000000000000000000000000000000000000\n        /* \"#utility.yul\":2887:2888   */\n      0x00\n        /* \"#utility.yul\":2880:2968   */\n      mstore\n        /* \"#utility.yul\":2987:2991   */\n      0x41\n        /* \"#utility.yul\":2984:2985   */\n      0x04\n        /* \"#utility.yul\":2977:2992   */\n      mstore\n        /* \"#utility.yul\":3011:3015   */\n      0x24\n        /* \"#utility.yul\":3008:3009   */\n      0x00\n        /* \"#utility.yul\":3001:3016   */\n      revert\n        /* \"#utility.yul\":3028:3309   */\n    tag_77:\n        /* \"#utility.yul\":3111:3138   */\n      tag_135\n        /* \"#utility.yul\":3133:3137   */\n      dup3\n        /* \"#utility.yul\":3111:3138   */\n      tag_75\n      jump\t// in\n    tag_135:\n        /* \"#utility.yul\":3103:3109   */\n      dup2\n        /* \"#utility.yul\":3099:3139   */\n      add\n        /* \"#utility.yul\":3241:3247   */\n      dup2\n        /* \"#utility.yul\":3229:3239   */\n      dup2\n        /* \"#utility.yul\":3226:3248   */\n      lt\n        /* \"#utility.yul\":3205:3223   */\n      0xffffffffffffffff\n        /* \"#utility.yul\":3193:3203   */\n      dup3\n        /* \"#utility.yul\":3190:3224   */\n      gt\n        /* \"#utility.yul\":3187:3249   */\n      or\n        /* \"#utility.yul\":3184:3272   */\n      iszero\n      tag_136\n      jumpi\n        /* \"#utility.yul\":3252:3270   */\n      tag_137\n      tag_76\n      jump\t// in\n    tag_137:\n        /* \"#utility.yul\":3184:3272   */\n    tag_136:\n        /* \"#utility.yul\":3292:3302   */\n      dup1\n        /* \"#utility.yul\":3288:3290   */\n      0x40\n        /* \"#utility.yul\":3281:3303   */\n      mstore\n        /* \"#utility.yul\":3071:3309   */\n      pop\n        /* \"#utility.yul\":3028:3309   */\n      pop\n      pop\n      jump\t// out\n        /* \"#utility.yul\":3315:3444   */\n    tag_78:\n        /* \"#utility.yul\":3349:3355   */\n      0x00\n        /* \"#utility.yul\":3376:3396   */\n      tag_139\n      tag_61\n      jump\t// in\n    tag_139:\n        /* \"#utility.yul\":3366:3396   */\n      swap1\n      pop\n        /* \"#utility.yul\":3405:3438   */\n      tag_140\n        /* \"#utility.yul\":3433:3437   */\n      dup3\n        /* \"#utility.yul\":3425:3431   */\n      dup3\n        /* \"#utility.yul\":3405:3438   */\n      tag_77\n      jump\t// in\n    tag_140:\n        /* \"#utility.yul\":3315:3444   */\n      swap2\n      swap1\n      pop\n      jump\t// out\n        /* \"#utility.yul\":3450:3758   */\n    tag_79:\n        /* \"#utility.yul\":3512:3516   */\n      0x00\n        /* \"#utility.yul\":3602:3620   */\n      0xffffffffffffffff\n        /* \"#utility.yul\":3594:3600   */\n      dup3\n        /* \"#utility.yul\":3591:3621   */\n      gt\n        /* \"#utility.yul\":3588:3644   */\n      iszero\n      tag_142\n      jumpi\n        /* \"#utility.yul\":3624:3642   */\n      tag_143\n      tag_76\n      jump\t// in\n    tag_143:\n        /* \"#utility.yul\":3588:3644   */\n    tag_142:\n        /* \"#utility.yul\":3662:3691   */\n      tag_144\n        /* \"#utility.yul\":3684:3690   */\n      dup3\n        /* \"#utility.yul\":3662:3691   */\n      tag_75\n      jump\t// in\n    tag_144:\n        /* \"#utility.yul\":3654:3691   */\n      swap1\n      pop\n        /* \"#utility.yul\":3746:3750   */\n      0x20\n        /* \"#utility.yul\":3740:3744   */\n      dup2\n        /* \"#utility.yul\":3736:3751   */\n      add\n        /* \"#utility.yul\":3728:3751   */\n      swap1\n      pop\n        /* \"#utility.yul\":3450:3758   */\n      swap2\n      swap1\n      pop\n      jump\t// out\n        /* \"#utility.yul\":3764:3912   */\n    tag_80:\n        /* \"#utility.yul\":3862:3868   */\n      dup3\n        /* \"#utility.yul\":3857:3860   */\n      dup2\n        /* \"#utility.yul\":3852:3855   */\n      dup4\n        /* \"#utility.yul\":3839:3869   */\n      calldatacopy\n        /* \"#utility.yul\":3903:3904   */\n      0x00\n        /* \"#utility.yul\":3894:3900   */\n      dup4\n        /* \"#utility.yul\":3889:3892   */\n      dup4\n        /* \"#utility.yul\":3885:3901   */\n      add\n        /* \"#utility.yul\":3878:3905   */\n      mstore\n        /* \"#utility.yul\":3764:3912   */\n      pop\n      pop\n      pop\n      jump\t// out\n        /* \"#utility.yul\":3918:4343   */\n    tag_81:\n        /* \"#utility.yul\":3996:4001   */\n      0x00\n        /* \"#utility.yul\":4021:4087   */\n      tag_147\n        /* \"#utility.yul\":4037:4086   */\n      tag_148\n        /* \"#utility.yul\":4079:4085   */\n      dup5\n        /* \"#utility.yul\":4037:4086   */\n      tag_79\n      jump\t// in\n    tag_148:\n        /* \"#utility.yul\":4021:4087   */\n      tag_78\n      jump\t// in\n    tag_147:\n        /* \"#utility.yul\":4012:4087   */\n      swap1\n      pop\n        /* \"#utility.yul\":4110:4116   */\n      dup3\n        /* \"#utility.yul\":4103:4108   */\n      dup2\n        /* \"#utility.yul\":4096:4117   */\n      mstore\n        /* \"#utility.yul\":4148:4152   */\n      0x20\n        /* \"#utility.yul\":4141:4146   */\n      dup2\n        /* \"#utility.yul\":4137:4153   */\n      add\n        /* \"#utility.yul\":4186:4189   */\n      dup5\n        /* \"#utility.yul\":4177:4183   */\n      dup5\n        /* \"#utility.yul\":4172:4175   */\n      dup5\n        /* \"#utility.yul\":4168:4184   */\n      add\n        /* \"#utility.yul\":4165:4190   */\n      gt\n        /* \"#utility.yul\":4162:4274   */\n      iszero\n      tag_149\n      jumpi\n        /* \"#utility.yul\":4193:4272   */\n      tag_150\n      tag_74\n      jump\t// in\n    tag_150:\n        /* \"#utility.yul\":4162:4274   */\n    tag_149:\n        /* \"#utility.yul\":4283:4337   */\n      tag_151\n        /* \"#utility.yul\":4330:4336   */\n      dup5\n        /* \"#utility.yul\":4325:4328   */\n      dup3\n        /* \"#utility.yul\":4320:4323   */\n      dup6\n        /* \"#utility.yul\":4283:4337   */\n      tag_80\n      jump\t// in\n    tag_151:\n        /* \"#utility.yul\":4002:4343   */\n      pop\n        /* \"#utility.yul\":3918:4343   */\n      swap4\n      swap3\n      pop\n      pop\n      pop\n      jump\t// out\n        /* \"#utility.yul\":4363:4703   */\n    tag_82:\n        /* \"#utility.yul\":4419:4424   */\n      0x00\n        /* \"#utility.yul\":4468:4471   */\n      dup3\n        /* \"#utility.yul\":4461:4465   */\n      0x1f\n        /* \"#utility.yul\":4453:4459   */\n      dup4\n        /* \"#utility.yul\":4449:4466   */\n      add\n        /* \"#utility.yul\":4445:4472   */\n      slt\n        /* \"#utility.yul\":4435:4557   */\n      tag_153\n      jumpi\n        /* \"#utility.yul\":4476:4555   */\n      tag_154\n      tag_73\n      jump\t// in\n    tag_154:\n        /* \"#utility.yul\":4435:4557   */\n    tag_153:\n        /* \"#utility.yul\":4593:4599   */\n      dup2\n        /* \"#utility.yul\":4580:4600   */\n      calldataload\n        /* \"#utility.yul\":4618:4697   */\n      tag_155\n        /* \"#utility.yul\":4693:4696   */\n      dup5\n        /* \"#utility.yul\":4685:4691   */\n      dup3\n        /* \"#utility.yul\":4678:4682   */\n      0x20\n        /* \"#utility.yul\":4670:4676   */\n      dup7\n        /* \"#utility.yul\":4666:4683   */\n      add\n        /* \"#utility.yul\":4618:4697   */\n      tag_81\n      jump\t// in\n    tag_155:\n        /* \"#utility.yul\":4609:4697   */\n      swap2\n      pop\n        /* \"#utility.yul\":4425:4703   */\n      pop\n        /* \"#utility.yul\":4363:4703   */\n      swap3\n      swap2\n      pop\n      pop\n      jump\t// out\n        /* \"#utility.yul\":4709:5218   */\n    tag_25:\n        /* \"#utility.yul\":4778:4784   */\n      0x00\n        /* \"#utility.yul\":4827:4829   */\n      0x20\n        /* \"#utility.yul\":4815:4824   */\n      dup3\n        /* \"#utility.yul\":4806:4813   */\n      dup5\n        /* \"#utility.yul\":4802:4825   */\n      sub\n        /* \"#utility.yul\":4798:4830   */\n      slt\n        /* \"#utility.yul\":4795:4914   */\n      iszero\n      tag_157\n      jumpi\n        /* \"#utility.yul\":4833:4912   */\n      tag_158\n      tag_62\n      jump\t// in\n    tag_158:\n        /* \"#utility.yul\":4795:4914   */\n    tag_157:\n        /* \"#utility.yul\":4981:4982   */\n      0x00\n        /* \"#utility.yul\":4970:4979   */\n      dup3\n        /* \"#utility.yul\":4966:4983   */\n      add\n        /* \"#utility.yul\":4953:4984   */\n      calldataload\n        /* \"#utility.yul\":5011:5029   */\n      0xffffffffffffffff\n        /* \"#utility.yul\":5003:5009   */\n      dup2\n        /* \"#utility.yul\":5000:5030   */\n      gt\n        /* \"#utility.yul\":4997:5114   */\n      iszero\n      tag_159\n      jumpi\n        /* \"#utility.yul\":5033:5112   */\n      tag_160\n      tag_63\n      jump\t// in\n    tag_160:\n        /* \"#utility.yul\":4997:5114   */\n    tag_159:\n        /* \"#utility.yul\":5138:5201   */\n      tag_161\n        /* \"#utility.yul\":5193:5200   */\n      dup5\n        /* \"#utility.yul\":5184:5190   */\n      dup3\n        /* \"#utility.yul\":5173:5182   */\n      dup6\n        /* \"#utility.yul\":5169:5191   */\n      add\n        /* \"#utility.yul\":5138:5201   */\n      tag_82\n      jump\t// in\n    tag_161:\n        /* \"#utility.yul\":5128:5201   */\n      swap2\n      pop\n        /* \"#utility.yul\":4924:5211   */\n      pop\n        /* \"#utility.yul\":4709:5218   */\n      swap3\n      swap2\n      pop\n      pop\n      jump\t// out\n        /* \"#utility.yul\":5224:5323   */\n    tag_83:\n        /* \"#utility.yul\":5276:5282   */\n      0x00\n        /* \"#utility.yul\":5310:5315   */\n      dup2\n        /* \"#utility.yul\":5304:5316   */\n      mload\n        /* \"#utility.yul\":5294:5316   */\n      swap1\n      pop\n        /* \"#utility.yul\":5224:5323   */\n      swap2\n      swap1\n      pop\n      jump\t// out\n        /* \"#utility.yul\":5329:5498   */\n    tag_84:\n        /* \"#utility.yul\":5413:5424   */\n      0x00\n        /* \"#utility.yul\":5447:5453   */\n      dup3\n        /* \"#utility.yul\":5442:5445   */\n      dup3\n        /* \"#utility.yul\":5435:5454   */\n      mstore\n        /* \"#utility.yul\":5487:5491   */\n      0x20\n        /* \"#utility.yul\":5482:5485   */\n      dup3\n        /* \"#utility.yul\":5478:5492   */\n      add\n        /* \"#utility.yul\":5463:5492   */\n      swap1\n      pop\n        /* \"#utility.yul\":5329:5498   */\n      swap3\n      swap2\n      pop\n      pop\n      jump\t// out\n        /* \"#utility.yul\":5504:5643   */\n    tag_85:\n        /* \"#utility.yul\":5593:5599   */\n      dup3\n        /* \"#utility.yul\":5588:5591   */\n      dup2\n        /* \"#utility.yul\":5583:5586   */\n      dup4\n        /* \"#utility.yul\":5577:5600   */\n      mcopy\n        /* \"#utility.yul\":5634:5635   */\n      0x00\n        /* \"#utility.yul\":5625:5631   */\n      dup4\n        /* \"#utility.yul\":5620:5623   */\n      dup4\n        /* \"#utility.yul\":5616:5632   */\n      add\n        /* \"#utility.yul\":5609:5636   */\n      mstore\n        /* \"#utility.yul\":5504:5643   */\n      pop\n      pop\n      pop\n      jump\t// out\n        /* \"#utility.yul\":5649:6026   */\n    tag_86:\n        /* \"#utility.yul\":5737:5740   */\n      0x00\n        /* \"#utility.yul\":5765:5804   */\n      tag_166\n        /* \"#utility.yul\":5798:5803   */\n      dup3\n        /* \"#utility.yul\":5765:5804   */\n      tag_83\n      jump\t// in\n    tag_166:\n        /* \"#utility.yul\":5820:5891   */\n      tag_167\n        /* \"#utility.yul\":5884:5890   */\n      dup2\n        /* \"#utility.yul\":5879:5882   */\n      dup6\n        /* \"#utility.yul\":5820:5891   */\n      tag_84\n      jump\t// in\n    tag_167:\n        /* \"#utility.yul\":5813:5891   */\n      swap4\n      pop\n        /* \"#utility.yul\":5900:5965   */\n      tag_168\n        /* \"#utility.yul\":5958:5964   */\n      dup2\n        /* \"#utility.yul\":5953:5956   */\n      dup6\n        /* \"#utility.yul\":5946:5950   */\n      0x20\n        /* \"#utility.yul\":5939:5944   */\n      dup7\n        /* \"#utility.yul\":5935:5951   */\n      add\n        /* \"#utility.yul\":5900:5965   */\n      tag_85\n      jump\t// in\n    tag_168:\n        /* \"#utility.yul\":5990:6019   */\n      tag_169\n        /* \"#utility.yul\":6012:6018   */\n      dup2\n        /* \"#utility.yul\":5990:6019   */\n      tag_75\n      jump\t// in\n    tag_169:\n        /* \"#utility.yul\":5985:5988   */\n      dup5\n        /* \"#utility.yul\":5981:6020   */\n      add\n        /* \"#utility.yul\":5974:6020   */\n      swap2\n      pop\n        /* \"#utility.yul\":5741:6026   */\n      pop\n        /* \"#utility.yul\":5649:6026   */\n      swap3\n      swap2\n      pop\n      pop\n      jump\t// out\n        /* \"#utility.yul\":6032:6345   */\n    tag_28:\n        /* \"#utility.yul\":6145:6149   */\n      0x00\n        /* \"#utility.yul\":6183:6185   */\n      0x20\n        /* \"#utility.yul\":6172:6181   */\n      dup3\n        /* \"#utility.yul\":6168:6186   */\n      add\n        /* \"#utility.yul\":6160:6186   */\n      swap1\n      pop\n        /* \"#utility.yul\":6232:6241   */\n      dup2\n        /* \"#utility.yul\":6226:6230   */\n      dup2\n        /* \"#utility.yul\":6222:6242   */\n      sub\n        /* \"#utility.yul\":6218:6219   */\n      0x00\n        /* \"#utility.yul\":6207:6216   */\n      dup4\n        /* \"#utility.yul\":6203:6220   */\n      add\n        /* \"#utility.yul\":6196:6243   */\n      mstore\n        /* \"#utility.yul\":6260:6338   */\n      tag_171\n        /* \"#utility.yul\":6333:6337   */\n      dup2\n        /* \"#utility.yul\":6324:6330   */\n      dup5\n        /* \"#utility.yul\":6260:6338   */\n      tag_86\n      jump\t// in\n    tag_171:\n        /* \"#utility.yul\":6252:6338   */\n      swap1\n      pop\n        /* \"#utility.yul\":6032:6345   */\n      swap3\n      swap2\n      pop\n      pop\n      jump\t// out\n        /* \"#utility.yul\":6351:6531   */\n    tag_87:\n        /* \"#utility.yul\":6399:6476   */\n      0x4e487b7100000000000000000000000000000000000000000000000000000000\n        /* \"#utility.yul\":6396:6397   */\n      0x00\n        /* \"#utility.yul\":6389:6477   */\n      mstore\n        /* \"#utility.yul\":6496:6500   */\n      0x12\n        /* \"#utility.yul\":6493:6494   */\n      0x04\n        /* \"#utility.yul\":6486:6501   */\n      mstore\n        /* \"#utility.yul\":6520:6524   */\n      0x24\n        /* \"#utility.yul\":6517:6518   */\n      0x00\n        /* \"#utility.yul\":6510:6525   */\n      revert\n        /* \"#utility.yul\":6537:6713   */\n    tag_34:\n        /* \"#utility.yul\":6569:6570   */\n      0x00\n        /* \"#utility.yul\":6586:6606   */\n      tag_174\n        /* \"#utility.yul\":6604:6605   */\n      dup3\n        /* \"#utility.yul\":6586:6606   */\n      tag_64\n      jump\t// in\n    tag_174:\n        /* \"#utility.yul\":6581:6606   */\n      swap2\n      pop\n        /* \"#utility.yul\":6620:6640   */\n      tag_175\n        /* \"#utility.yul\":6638:6639   */\n      dup4\n        /* \"#utility.yul\":6620:6640   */\n      tag_64\n      jump\t// in\n    tag_175:\n        /* \"#utility.yul\":6615:6640   */\n      swap3\n      pop\n        /* \"#utility.yul\":6659:6660   */\n      dup3\n        /* \"#utility.yul\":6649:6684   */\n      tag_176\n      jumpi\n        /* \"#utility.yul\":6664:6682   */\n      tag_177\n      tag_87\n      jump\t// in\n    tag_177:\n        /* \"#utility.yul\":6649:6684   */\n    tag_176:\n        /* \"#utility.yul\":6705:6706   */\n      dup3\n        /* \"#utility.yul\":6702:6703   */\n      dup3\n        /* \"#utility.yul\":6698:6707   */\n      mod\n        /* \"#utility.yul\":6693:6707   */\n      swap1\n      pop\n        /* \"#utility.yul\":6537:6713   */\n      swap3\n      swap2\n      pop\n      pop\n      jump\t// out\n        /* \"#utility.yul\":6719:6899   */\n    tag_88:\n        /* \"#utility.yul\":6767:6844   */\n      0x4e487b7100000000000000000000000000000000000000000000000000000000\n        /* \"#utility.yul\":6764:6765   */\n      0x00\n        /* \"#utility.yul\":6757:6845   */\n      mstore\n        /* \"#utility.yul\":6864:6868   */\n      0x11\n        /* \"#utility.yul\":6861:6862   */\n      0x04\n        /* \"#utility.yul\":6854:6869   */\n      mstore\n        /* \"#utility.yul\":6888:6892   */\n      0x24\n        /* \"#utility.yul\":6885:6886   */\n      0x00\n        /* \"#utility.yul\":6878:6893   */\n      revert\n        /* \"#utility.yul\":6905:7133   */\n    tag_42:\n        /* \"#utility.yul\":6940:6943   */\n      0x00\n        /* \"#utility.yul\":6963:6986   */\n      tag_180\n        /* \"#utility.yul\":6980:6985   */\n      dup3\n        /* \"#utility.yul\":6963:6986   */\n      tag_69\n      jump\t// in\n    tag_180:\n        /* \"#utility.yul\":6954:6986   */\n      swap2\n      pop\n        /* \"#utility.yul\":7008:7074   */\n      0x8000000000000000000000000000000000000000000000000000000000000000\n        /* \"#utility.yul\":7001:7006   */\n      dup3\n        /* \"#utility.yul\":6998:7075   */\n      sub\n        /* \"#utility.yul\":6995:7098   */\n      tag_181\n      jumpi\n        /* \"#utility.yul\":7078:7096   */\n      tag_182\n      tag_88\n      jump\t// in\n    tag_182:\n        /* \"#utility.yul\":6995:7098   */\n    tag_181:\n        /* \"#utility.yul\":7121:7126   */\n      dup2\n        /* \"#utility.yul\":7118:7119   */\n      0x00\n        /* \"#utility.yul\":7114:7127   */\n      sub\n        /* \"#utility.yul\":7107:7127   */\n      swap1\n      pop\n        /* \"#utility.yul\":6905:7133   */\n      swap2\n      swap1\n      pop\n      jump\t// out\n        /* \"#utility.yul\":7139:7287   */\n    tag_89:\n        /* \"#utility.yul\":7241:7252   */\n      0x00\n        /* \"#utility.yul\":7278:7281   */\n      dup2\n        /* \"#utility.yul\":7263:7281   */\n      swap1\n      pop\n        /* \"#utility.yul\":7139:7287   */\n      swap3\n      swap2\n      pop\n      pop\n      jump\t// out\n        /* \"#utility.yul\":7293:7447   */\n    tag_90:\n        /* \"#utility.yul\":7433:7439   */\n      0x4a6f616e00000000000000000000000000000000000000000000000000000000\n        /* \"#utility.yul\":7429:7430   */\n      0x00\n        /* \"#utility.yul\":7421:7427   */\n      dup3\n        /* \"#utility.yul\":7417:7431   */\n      add\n        /* \"#utility.yul\":7410:7440   */\n      mstore\n        /* \"#utility.yul\":7293:7447   */\n      pop\n      jump\t// out\n        /* \"#utility.yul\":7453:7853   */\n    tag_91:\n        /* \"#utility.yul\":7613:7616   */\n      0x00\n        /* \"#utility.yul\":7634:7718   */\n      tag_186\n        /* \"#utility.yul\":7716:7717   */\n      0x04\n        /* \"#utility.yul\":7711:7714   */\n      dup4\n        /* \"#utility.yul\":7634:7718   */\n      tag_89\n      jump\t// in\n    tag_186:\n        /* \"#utility.yul\":7627:7718   */\n      swap2\n      pop\n        /* \"#utility.yul\":7727:7820   */\n      tag_187\n        /* \"#utility.yul\":7816:7819   */\n      dup3\n        /* \"#utility.yul\":7727:7820   */\n      tag_90\n      jump\t// in\n    tag_187:\n        /* \"#utility.yul\":7845:7846   */\n      0x04\n        /* \"#utility.yul\":7840:7843   */\n      dup3\n        /* \"#utility.yul\":7836:7847   */\n      add\n        /* \"#utility.yul\":7829:7847   */\n      swap1\n      pop\n        /* \"#utility.yul\":7453:7853   */\n      swap2\n      swap1\n      pop\n      jump\t// out\n        /* \"#utility.yul\":7859:8240   */\n    tag_46:\n        /* \"#utility.yul\":8044:8047   */\n      0x00\n        /* \"#utility.yul\":8066:8214   */\n      tag_189\n        /* \"#utility.yul\":8210:8213   */\n      dup3\n        /* \"#utility.yul\":8066:8214   */\n      tag_91\n      jump\t// in\n    tag_189:\n        /* \"#utility.yul\":8059:8214   */\n      swap2\n      pop\n        /* \"#utility.yul\":8231:8234   */\n      dup2\n        /* \"#utility.yul\":8224:8234   */\n      swap1\n      pop\n        /* \"#utility.yul\":7859:8240   */\n      swap2\n      swap1\n      pop\n      jump\t// out\n        /* \"#utility.yul\":8246:8636   */\n    tag_92:\n        /* \"#utility.yul\":8352:8355   */\n      0x00\n        /* \"#utility.yul\":8380:8419   */\n      tag_191\n        /* \"#utility.yul\":8413:8418   */\n      dup3\n        /* \"#utility.yul\":8380:8419   */\n      tag_83\n      jump\t// in\n    tag_191:\n        /* \"#utility.yul\":8435:8524   */\n      tag_192\n        /* \"#utility.yul\":8517:8523   */\n      dup2\n        /* \"#utility.yul\":8512:8515   */\n      dup6\n        /* \"#utility.yul\":8435:8524   */\n      tag_89\n      jump\t// in\n    tag_192:\n        /* \"#utility.yul\":8428:8524   */\n      swap4\n      pop\n        /* \"#utility.yul\":8533:8598   */\n      tag_193\n        /* \"#utility.yul\":8591:8597   */\n      dup2\n        /* \"#utility.yul\":8586:8589   */\n      dup6\n        /* \"#utility.yul\":8579:8583   */\n      0x20\n        /* \"#utility.yul\":8572:8577   */\n      dup7\n        /* \"#utility.yul\":8568:8584   */\n      add\n        /* \"#utility.yul\":8533:8598   */\n      tag_85\n      jump\t// in\n    tag_193:\n        /* \"#utility.yul\":8623:8629   */\n      dup1\n        /* \"#utility.yul\":8618:8621   */\n      dup5\n        /* \"#utility.yul\":8614:8630   */\n      add\n        /* \"#utility.yul\":8607:8630   */\n      swap2\n      pop\n        /* \"#utility.yul\":8356:8636   */\n      pop\n        /* \"#utility.yul\":8246:8636   */\n      swap3\n      swap2\n      pop\n      pop\n      jump\t// out\n        /* \"#utility.yul\":8642:8917   */\n    tag_48:\n        /* \"#utility.yul\":8774:8777   */\n      0x00\n        /* \"#utility.yul\":8796:8891   */\n      tag_195\n        /* \"#utility.yul\":8887:8890   */\n      dup3\n        /* \"#utility.yul\":8878:8884   */\n      dup5\n        /* \"#utility.yul\":8796:8891   */\n      tag_92\n      jump\t// in\n    tag_195:\n        /* \"#utility.yul\":8789:8891   */\n      swap2\n      pop\n        /* \"#utility.yul\":8908:8911   */\n      dup2\n        /* \"#utility.yul\":8901:8911   */\n      swap1\n      pop\n        /* \"#utility.yul\":8642:8917   */\n      swap3\n      swap2\n      pop\n      pop\n      jump\t// out\n        /* \"#utility.yul\":8923:9080   */\n    tag_93:\n        /* \"#utility.yul\":9063:9072   */\n      0x4761627269656c00000000000000000000000000000000000000000000000000\n        /* \"#utility.yul\":9059:9060   */\n      0x00\n        /* \"#utility.yul\":9051:9057   */\n      dup3\n        /* \"#utility.yul\":9047:9061   */\n      add\n        /* \"#utility.yul\":9040:9073   */\n      mstore\n        /* \"#utility.yul\":8923:9080   */\n      pop\n      jump\t// out\n        /* \"#utility.yul\":9086:9486   */\n    tag_94:\n        /* \"#utility.yul\":9246:9249   */\n      0x00\n        /* \"#utility.yul\":9267:9351   */\n      tag_198\n        /* \"#utility.yul\":9349:9350   */\n      0x07\n        /* \"#utility.yul\":9344:9347   */\n      dup4\n        /* \"#utility.yul\":9267:9351   */\n      tag_89\n      jump\t// in\n    tag_198:\n        /* \"#utility.yul\":9260:9351   */\n      swap2\n      pop\n        /* \"#utility.yul\":9360:9453   */\n      tag_199\n        /* \"#utility.yul\":9449:9452   */\n      dup3\n        /* \"#utility.yul\":9360:9453   */\n      tag_93\n      jump\t// in\n    tag_199:\n        /* \"#utility.yul\":9478:9479   */\n      0x07\n        /* \"#utility.yul\":9473:9476   */\n      dup3\n        /* \"#utility.yul\":9469:9480   */\n      add\n        /* \"#utility.yul\":9462:9480   */\n      swap1\n      pop\n        /* \"#utility.yul\":9086:9486   */\n      swap2\n      swap1\n      pop\n      jump\t// out\n        /* \"#utility.yul\":9492:9873   */\n    tag_52:\n        /* \"#utility.yul\":9677:9680   */\n      0x00\n        /* \"#utility.yul\":9699:9847   */\n      tag_201\n        /* \"#utility.yul\":9843:9846   */\n      dup3\n        /* \"#utility.yul\":9699:9847   */\n      tag_94\n      jump\t// in\n    tag_201:\n        /* \"#utility.yul\":9692:9847   */\n      swap2\n      pop\n        /* \"#utility.yul\":9864:9867   */\n      dup2\n        /* \"#utility.yul\":9857:9867   */\n      swap1\n      pop\n        /* \"#utility.yul\":9492:9873   */\n      swap2\n      swap1\n      pop\n      jump\t// out\n        /* \"#utility.yul\":9879:10034   */\n    tag_95:\n        /* \"#utility.yul\":10019:10026   */\n      0x4d61726961000000000000000000000000000000000000000000000000000000\n        /* \"#utility.yul\":10015:10016   */\n      0x00\n        /* \"#utility.yul\":10007:10013   */\n      dup3\n        /* \"#utility.yul\":10003:10017   */\n      add\n        /* \"#utility.yul\":9996:10027   */\n      mstore\n        /* \"#utility.yul\":9879:10034   */\n      pop\n      jump\t// out\n        /* \"#utility.yul\":10040:10440   */\n    tag_96:\n        /* \"#utility.yul\":10200:10203   */\n      0x00\n        /* \"#utility.yul\":10221:10305   */\n      tag_204\n        /* \"#utility.yul\":10303:10304   */\n      0x05\n        /* \"#utility.yul\":10298:10301   */\n      dup4\n        /* \"#utility.yul\":10221:10305   */\n      tag_89\n      jump\t// in\n    tag_204:\n        /* \"#utility.yul\":10214:10305   */\n      swap2\n      pop\n        /* \"#utility.yul\":10314:10407   */\n      tag_205\n        /* \"#utility.yul\":10403:10406   */\n      dup3\n        /* \"#utility.yul\":10314:10407   */\n      tag_95\n      jump\t// in\n    tag_205:\n        /* \"#utility.yul\":10432:10433   */\n      0x05\n        /* \"#utility.yul\":10427:10430   */\n      dup3\n        /* \"#utility.yul\":10423:10434   */\n      add\n        /* \"#utility.yul\":10416:10434   */\n      swap1\n      pop\n        /* \"#utility.yul\":10040:10440   */\n      swap2\n      swap1\n      pop\n      jump\t// out\n        /* \"#utility.yul\":10446:10827   */\n    tag_57:\n        /* \"#utility.yul\":10631:10634   */\n      0x00\n        /* \"#utility.yul\":10653:10801   */\n      tag_207\n        /* \"#utility.yul\":10797:10800   */\n      dup3\n        /* \"#utility.yul\":10653:10801   */\n      tag_96\n      jump\t// in\n    tag_207:\n        /* \"#utility.yul\":10646:10801   */\n      swap2\n      pop\n        /* \"#utility.yul\":10818:10821   */\n      dup2\n        /* \"#utility.yul\":10811:10821   */\n      swap1\n      pop\n        /* \"#utility.yul\":10446:10827   */\n      swap2\n      swap1\n      pop\n      jump\t// out\n    stop\n    data_3ab5694fbf99d3183669d718fed8cbe2eeffc3e99459612ed464da9c99db37af 48617320766f7461646f206120756e2063616e64696461746f20717565206e6f20657374c3a120656e206c61206c69737461\n    data_4724cd3cf44a41e564a8240e5892071af5672f764b9287ff9355d6aa2c023925 48617320766f7461646f20636f7272656374616d656e74652061204761627269656c\n\n    auxdata: 0xa2646970667358221220ea5283e394f6253c009fd948753822039f2c9246ed368646aa44034924b9a3c664736f6c634300081a0033\n}\n",
				"bytecode": {
					"linkReferences": {},
					"object": "6080604052348015600e575f80fd5b506109428061001c5f395ff3fe608060405234801561000f575f80fd5b506004361061004a575f3560e01c806337eddd171461004e57806379ac27d41461007e5780637d825142146100ae578063ce3fe641146100de575b5f80fd5b61006860048036038101906100639190610397565b61010e565b60405161007591906103dc565b60405180910390f35b61009860048036038101906100939190610397565b61012e565b6040516100a591906103dc565b60405180910390f35b6100c860048036038101906100c39190610428565b610174565b6040516100d59190610462565b60405180910390f35b6100f860048036038101906100f391906105b7565b61019c565b604051610105919061065e565b60405180910390f35b5f80606483036101215760019050610125565b5f90505b80915050919050565b5f805f60028461013e91906106ab565b14801561014c575060648310155b801561015957506103e783105b15610167576001905061016b565b5f90505b80915050919050565b5f805f83121561018f578261018890610708565b9050610193565b8290505b80915050919050565b6060806040516020016101ae906107a2565b60405160208183030381529060405280519060200120836040516020016101d591906107e6565b604051602081830303815290604052805190602001200361022d576040518060400160405280601f81526020017f48617320766f7461646f20636f7272656374616d656e74652061204a6f616e00815250905061034a565b60405160200161023c90610846565b604051602081830303815290604052805190602001208360405160200161026391906107e6565b604051602081830303815290604052805190602001200361029e576040518060600160405280602281526020016108eb602291399050610349565b6040516020016102ad906108a4565b60405160208183030381529060405280519060200120836040516020016102d491906107e6565b604051602081830303815290604052805190602001200361032c576040518060400160405280602081526020017f48617320766f7461646f20636f7272656374616d656e74652061204d617269618152509050610348565b6040518060600160405280603281526020016108b96032913990505b5b5b80915050919050565b5f604051905090565b5f80fd5b5f80fd5b5f819050919050565b61037681610364565b8114610380575f80fd5b50565b5f813590506103918161036d565b92915050565b5f602082840312156103ac576103ab61035c565b5b5f6103b984828501610383565b91505092915050565b5f8115159050919050565b6103d6816103c2565b82525050565b5f6020820190506103ef5f8301846103cd565b92915050565b5f819050919050565b610407816103f5565b8114610411575f80fd5b50565b5f81359050610422816103fe565b92915050565b5f6020828403121561043d5761043c61035c565b5b5f61044a84828501610414565b91505092915050565b61045c81610364565b82525050565b5f6020820190506104755f830184610453565b92915050565b5f80fd5b5f80fd5b5f601f19601f8301169050919050565b7f4e487b71000000000000000000000000000000000000000000000000000000005f52604160045260245ffd5b6104c982610483565b810181811067ffffffffffffffff821117156104e8576104e7610493565b5b80604052505050565b5f6104fa610353565b905061050682826104c0565b919050565b5f67ffffffffffffffff82111561052557610524610493565b5b61052e82610483565b9050602081019050919050565b828183375f83830152505050565b5f61055b6105568461050b565b6104f1565b9050828152602081018484840111156105775761057661047f565b5b61058284828561053b565b509392505050565b5f82601f83011261059e5761059d61047b565b5b81356105ae848260208601610549565b91505092915050565b5f602082840312156105cc576105cb61035c565b5b5f82013567ffffffffffffffff8111156105e9576105e8610360565b5b6105f58482850161058a565b91505092915050565b5f81519050919050565b5f82825260208201905092915050565b8281835e5f83830152505050565b5f610630826105fe565b61063a8185610608565b935061064a818560208601610618565b61065381610483565b840191505092915050565b5f6020820190508181035f8301526106768184610626565b905092915050565b7f4e487b71000000000000000000000000000000000000000000000000000000005f52601260045260245ffd5b5f6106b582610364565b91506106c083610364565b9250826106d0576106cf61067e565b5b828206905092915050565b7f4e487b71000000000000000000000000000000000000000000000000000000005f52601160045260245ffd5b5f610712826103f5565b91507f80000000000000000000000000000000000000000000000000000000000000008203610744576107436106db565b5b815f039050919050565b5f81905092915050565b7f4a6f616e000000000000000000000000000000000000000000000000000000005f82015250565b5f61078c60048361074e565b915061079782610758565b600482019050919050565b5f6107ac82610780565b9150819050919050565b5f6107c0826105fe565b6107ca818561074e565b93506107da818560208601610618565b80840191505092915050565b5f6107f182846107b6565b915081905092915050565b7f4761627269656c000000000000000000000000000000000000000000000000005f82015250565b5f61083060078361074e565b915061083b826107fc565b600782019050919050565b5f61085082610824565b9150819050919050565b7f4d617269610000000000000000000000000000000000000000000000000000005f82015250565b5f61088e60058361074e565b91506108998261085a565b600582019050919050565b5f6108ae82610882565b915081905091905056fe48617320766f7461646f206120756e2063616e64696461746f20717565206e6f20657374c3a120656e206c61206c6973746148617320766f7461646f20636f7272656374616d656e74652061204761627269656ca2646970667358221220ea5283e394f6253c009fd948753822039f2c9246ed368646aa44034924b9a3c664736f6c634300081a0033",
					"opcodes": "PUSH1 0x80 PUSH1 0x40 MSTORE CALLVALUE DUP1 ISZERO PUSH1 0xE JUMPI PUSH0 DUP1 REVERT JUMPDEST POP PUSH2 0x942 DUP1 PUSH2 0x1C PUSH0 CODECOPY PUSH0 RETURN INVALID PUSH1 0x80 PUSH1 0x40 MSTORE CALLVALUE DUP1 ISZERO PUSH2 0xF JUMPI PUSH0 DUP1 REVERT JUMPDEST POP PUSH1 0x4 CALLDATASIZE LT PUSH2 0x4A JUMPI PUSH0 CALLDATALOAD PUSH1 0xE0 SHR DUP1 PUSH4 0x37EDDD17 EQ PUSH2 0x4E JUMPI DUP1 PUSH4 0x79AC27D4 EQ PUSH2 0x7E JUMPI DUP1 PUSH4 0x7D825142 EQ PUSH2 0xAE JUMPI DUP1 PUSH4 0xCE3FE641 EQ PUSH2 0xDE JUMPI JUMPDEST PUSH0 DUP1 REVERT JUMPDEST PUSH2 0x68 PUSH1 0x4 DUP1 CALLDATASIZE SUB DUP2 ADD SWAP1 PUSH2 0x63 SWAP2 SWAP1 PUSH2 0x397 JUMP JUMPDEST PUSH2 0x10E JUMP JUMPDEST PUSH1 0x40 MLOAD PUSH2 0x75 SWAP2 SWAP1 PUSH2 0x3DC JUMP JUMPDEST PUSH1 0x40 MLOAD DUP1 SWAP2 SUB SWAP1 RETURN JUMPDEST PUSH2 0x98 PUSH1 0x4 DUP1 CALLDATASIZE SUB DUP2 ADD SWAP1 PUSH2 0x93 SWAP2 SWAP1 PUSH2 0x397 JUMP JUMPDEST PUSH2 0x12E JUMP JUMPDEST PUSH1 0x40 MLOAD PUSH2 0xA5 SWAP2 SWAP1 PUSH2 0x3DC JUMP JUMPDEST PUSH1 0x40 MLOAD DUP1 SWAP2 SUB SWAP1 RETURN JUMPDEST PUSH2 0xC8 PUSH1 0x4 DUP1 CALLDATASIZE SUB DUP2 ADD SWAP1 PUSH2 0xC3 SWAP2 SWAP1 PUSH2 0x428 JUMP JUMPDEST PUSH2 0x174 JUMP JUMPDEST PUSH1 0x40 MLOAD PUSH2 0xD5 SWAP2 SWAP1 PUSH2 0x462 JUMP JUMPDEST PUSH1 0x40 MLOAD DUP1 SWAP2 SUB SWAP1 RETURN JUMPDEST PUSH2 0xF8 PUSH1 0x4 DUP1 CALLDATASIZE SUB DUP2 ADD SWAP1 PUSH2 0xF3 SWAP2 SWAP1 PUSH2 0x5B7 JUMP JUMPDEST PUSH2 0x19C JUMP JUMPDEST PUSH1 0x40 MLOAD PUSH2 0x105 SWAP2 SWAP1 PUSH2 0x65E JUMP JUMPDEST PUSH1 0x40 MLOAD DUP1 SWAP2 SUB SWAP1 RETURN JUMPDEST PUSH0 DUP1 PUSH1 0x64 DUP4 SUB PUSH2 0x121 JUMPI PUSH1 0x1 SWAP1 POP PUSH2 0x125 JUMP JUMPDEST PUSH0 SWAP1 POP JUMPDEST DUP1 SWAP2 POP POP SWAP2 SWAP1 POP JUMP JUMPDEST PUSH0 DUP1 PUSH0 PUSH1 0x2 DUP5 PUSH2 0x13E SWAP2 SWAP1 PUSH2 0x6AB JUMP JUMPDEST EQ DUP1 ISZERO PUSH2 0x14C JUMPI POP PUSH1 0x64 DUP4 LT ISZERO JUMPDEST DUP1 ISZERO PUSH2 0x159 JUMPI POP PUSH2 0x3E7 DUP4 LT JUMPDEST ISZERO PUSH2 0x167 JUMPI PUSH1 0x1 SWAP1 POP PUSH2 0x16B JUMP JUMPDEST PUSH0 SWAP1 POP JUMPDEST DUP1 SWAP2 POP POP SWAP2 SWAP1 POP JUMP JUMPDEST PUSH0 DUP1 PUSH0 DUP4 SLT ISZERO PUSH2 0x18F JUMPI DUP3 PUSH2 0x188 SWAP1 PUSH2 0x708 JUMP JUMPDEST SWAP1 POP PUSH2 0x193 JUMP JUMPDEST DUP3 SWAP1 POP JUMPDEST DUP1 SWAP2 POP POP SWAP2 SWAP1 POP JUMP JUMPDEST PUSH1 0x60 DUP1 PUSH1 0x40 MLOAD PUSH1 0x20 ADD PUSH2 0x1AE SWAP1 PUSH2 0x7A2 JUMP JUMPDEST PUSH1 0x40 MLOAD PUSH1 0x20 DUP2 DUP4 SUB SUB DUP2 MSTORE SWAP1 PUSH1 0x40 MSTORE DUP1 MLOAD SWAP1 PUSH1 0x20 ADD KECCAK256 DUP4 PUSH1 0x40 MLOAD PUSH1 0x20 ADD PUSH2 0x1D5 SWAP2 SWAP1 PUSH2 0x7E6 JUMP JUMPDEST PUSH1 0x40 MLOAD PUSH1 0x20 DUP2 DUP4 SUB SUB DUP2 MSTORE SWAP1 PUSH1 0x40 MSTORE DUP1 MLOAD SWAP1 PUSH1 0x20 ADD KECCAK256 SUB PUSH2 0x22D JUMPI PUSH1 0x40 MLOAD DUP1 PUSH1 0x40 ADD PUSH1 0x40 MSTORE DUP1 PUSH1 0x1F DUP2 MSTORE PUSH1 0x20 ADD PUSH32 0x48617320766F7461646F20636F7272656374616D656E74652061204A6F616E00 DUP2 MSTORE POP SWAP1 POP PUSH2 0x34A JUMP JUMPDEST PUSH1 0x40 MLOAD PUSH1 0x20 ADD PUSH2 0x23C SWAP1 PUSH2 0x846 JUMP JUMPDEST PUSH1 0x40 MLOAD PUSH1 0x20 DUP2 DUP4 SUB SUB DUP2 MSTORE SWAP1 PUSH1 0x40 MSTORE DUP1 MLOAD SWAP1 PUSH1 0x20 ADD KECCAK256 DUP4 PUSH1 0x40 MLOAD PUSH1 0x20 ADD PUSH2 0x263 SWAP2 SWAP1 PUSH2 0x7E6 JUMP JUMPDEST PUSH1 0x40 MLOAD PUSH1 0x20 DUP2 DUP4 SUB SUB DUP2 MSTORE SWAP1 PUSH1 0x40 MSTORE DUP1 MLOAD SWAP1 PUSH1 0x20 ADD KECCAK256 SUB PUSH2 0x29E JUMPI PUSH1 0x40 MLOAD DUP1 PUSH1 0x60 ADD PUSH1 0x40 MSTORE DUP1 PUSH1 0x22 DUP2 MSTORE PUSH1 0x20 ADD PUSH2 0x8EB PUSH1 0x22 SWAP2 CODECOPY SWAP1 POP PUSH2 0x349 JUMP JUMPDEST PUSH1 0x40 MLOAD PUSH1 0x20 ADD PUSH2 0x2AD SWAP1 PUSH2 0x8A4 JUMP JUMPDEST PUSH1 0x40 MLOAD PUSH1 0x20 DUP2 DUP4 SUB SUB DUP2 MSTORE SWAP1 PUSH1 0x40 MSTORE DUP1 MLOAD SWAP1 PUSH1 0x20 ADD KECCAK256 DUP4 PUSH1 0x40 MLOAD PUSH1 0x20 ADD PUSH2 0x2D4 SWAP2 SWAP1 PUSH2 0x7E6 JUMP JUMPDEST PUSH1 0x40 MLOAD PUSH1 0x20 DUP2 DUP4 SUB SUB DUP2 MSTORE SWAP1 PUSH1 0x40 MSTORE DUP1 MLOAD SWAP1 PUSH1 0x20 ADD KECCAK256 SUB PUSH2 0x32C JUMPI PUSH1 0x40 MLOAD DUP1 PUSH1 0x40 ADD PUSH1 0x40 MSTORE DUP1 PUSH1 0x20 DUP2 MSTORE PUSH1 0x20 ADD PUSH32 0x48617320766F7461646F20636F7272656374616D656E74652061204D61726961 DUP2 MSTORE POP SWAP1 POP PUSH2 0x348 JUMP JUMPDEST PUSH1 0x40 MLOAD DUP1 PUSH1 0x60 ADD PUSH1 0x40 MSTORE DUP1 PUSH1 0x32 DUP2 MSTORE PUSH1 0x20 ADD PUSH2 0x8B9 PUSH1 0x32 SWAP2 CODECOPY SWAP1 POP JUMPDEST JUMPDEST JUMPDEST DUP1 SWAP2 POP POP SWAP2 SWAP1 POP JUMP JUMPDEST PUSH0 PUSH1 0x40 MLOAD SWAP1 POP SWAP1 JUMP JUMPDEST PUSH0 DUP1 REVERT JUMPDEST PUSH0 DUP1 REVERT JUMPDEST PUSH0 DUP2 SWAP1 POP SWAP2 SWAP1 POP JUMP JUMPDEST PUSH2 0x376 DUP2 PUSH2 0x364 JUMP JUMPDEST DUP2 EQ PUSH2 0x380 JUMPI PUSH0 DUP1 REVERT JUMPDEST POP JUMP JUMPDEST PUSH0 DUP2 CALLDATALOAD SWAP1 POP PUSH2 0x391 DUP2 PUSH2 0x36D JUMP JUMPDEST SWAP3 SWAP2 POP POP JUMP JUMPDEST PUSH0 PUSH1 0x20 DUP3 DUP5 SUB SLT ISZERO PUSH2 0x3AC JUMPI PUSH2 0x3AB PUSH2 0x35C JUMP JUMPDEST JUMPDEST PUSH0 PUSH2 0x3B9 DUP5 DUP3 DUP6 ADD PUSH2 0x383 JUMP JUMPDEST SWAP2 POP POP SWAP3 SWAP2 POP POP JUMP JUMPDEST PUSH0 DUP2 ISZERO ISZERO SWAP1 POP SWAP2 SWAP1 POP JUMP JUMPDEST PUSH2 0x3D6 DUP2 PUSH2 0x3C2 JUMP JUMPDEST DUP3 MSTORE POP POP JUMP JUMPDEST PUSH0 PUSH1 0x20 DUP3 ADD SWAP1 POP PUSH2 0x3EF PUSH0 DUP4 ADD DUP5 PUSH2 0x3CD JUMP JUMPDEST SWAP3 SWAP2 POP POP JUMP JUMPDEST PUSH0 DUP2 SWAP1 POP SWAP2 SWAP1 POP JUMP JUMPDEST PUSH2 0x407 DUP2 PUSH2 0x3F5 JUMP JUMPDEST DUP2 EQ PUSH2 0x411 JUMPI PUSH0 DUP1 REVERT JUMPDEST POP JUMP JUMPDEST PUSH0 DUP2 CALLDATALOAD SWAP1 POP PUSH2 0x422 DUP2 PUSH2 0x3FE JUMP JUMPDEST SWAP3 SWAP2 POP POP JUMP JUMPDEST PUSH0 PUSH1 0x20 DUP3 DUP5 SUB SLT ISZERO PUSH2 0x43D JUMPI PUSH2 0x43C PUSH2 0x35C JUMP JUMPDEST JUMPDEST PUSH0 PUSH2 0x44A DUP5 DUP3 DUP6 ADD PUSH2 0x414 JUMP JUMPDEST SWAP2 POP POP SWAP3 SWAP2 POP POP JUMP JUMPDEST PUSH2 0x45C DUP2 PUSH2 0x364 JUMP JUMPDEST DUP3 MSTORE POP POP JUMP JUMPDEST PUSH0 PUSH1 0x20 DUP3 ADD SWAP1 POP PUSH2 0x475 PUSH0 DUP4 ADD DUP5 PUSH2 0x453 JUMP JUMPDEST SWAP3 SWAP2 POP POP JUMP JUMPDEST PUSH0 DUP1 REVERT JUMPDEST PUSH0 DUP1 REVERT JUMPDEST PUSH0 PUSH1 0x1F NOT PUSH1 0x1F DUP4 ADD AND SWAP1 POP SWAP2 SWAP1 POP JUMP JUMPDEST PUSH32 0x4E487B7100000000000000000000000000000000000000000000000000000000 PUSH0 MSTORE PUSH1 0x41 PUSH1 0x4 MSTORE PUSH1 0x24 PUSH0 REVERT JUMPDEST PUSH2 0x4C9 DUP3 PUSH2 0x483 JUMP JUMPDEST DUP2 ADD DUP2 DUP2 LT PUSH8 0xFFFFFFFFFFFFFFFF DUP3 GT OR ISZERO PUSH2 0x4E8 JUMPI PUSH2 0x4E7 PUSH2 0x493 JUMP JUMPDEST JUMPDEST DUP1 PUSH1 0x40 MSTORE POP POP POP JUMP JUMPDEST PUSH0 PUSH2 0x4FA PUSH2 0x353 JUMP JUMPDEST SWAP1 POP PUSH2 0x506 DUP3 DUP3 PUSH2 0x4C0 JUMP JUMPDEST SWAP2 SWAP1 POP JUMP JUMPDEST PUSH0 PUSH8 0xFFFFFFFFFFFFFFFF DUP3 GT ISZERO PUSH2 0x525 JUMPI PUSH2 0x524 PUSH2 0x493 JUMP JUMPDEST JUMPDEST PUSH2 0x52E DUP3 PUSH2 0x483 JUMP JUMPDEST SWAP1 POP PUSH1 0x20 DUP2 ADD SWAP1 POP SWAP2 SWAP1 POP JUMP JUMPDEST DUP3 DUP2 DUP4 CALLDATACOPY PUSH0 DUP4 DUP4 ADD MSTORE POP POP POP JUMP JUMPDEST PUSH0 PUSH2 0x55B PUSH2 0x556 DUP5 PUSH2 0x50B JUMP JUMPDEST PUSH2 0x4F1 JUMP JUMPDEST SWAP1 POP DUP3 DUP2 MSTORE PUSH1 0x20 DUP2 ADD DUP5 DUP5 DUP5 ADD GT ISZERO PUSH2 0x577 JUMPI PUSH2 0x576 PUSH2 0x47F JUMP JUMPDEST JUMPDEST PUSH2 0x582 DUP5 DUP3 DUP6 PUSH2 0x53B JUMP JUMPDEST POP SWAP4 SWAP3 POP POP POP JUMP JUMPDEST PUSH0 DUP3 PUSH1 0x1F DUP4 ADD SLT PUSH2 0x59E JUMPI PUSH2 0x59D PUSH2 0x47B JUMP JUMPDEST JUMPDEST DUP2 CALLDATALOAD PUSH2 0x5AE DUP5 DUP3 PUSH1 0x20 DUP7 ADD PUSH2 0x549 JUMP JUMPDEST SWAP2 POP POP SWAP3 SWAP2 POP POP JUMP JUMPDEST PUSH0 PUSH1 0x20 DUP3 DUP5 SUB SLT ISZERO PUSH2 0x5CC JUMPI PUSH2 0x5CB PUSH2 0x35C JUMP JUMPDEST JUMPDEST PUSH0 DUP3 ADD CALLDATALOAD PUSH8 0xFFFFFFFFFFFFFFFF DUP2 GT ISZERO PUSH2 0x5E9 JUMPI PUSH2 0x5E8 PUSH2 0x360 JUMP JUMPDEST JUMPDEST PUSH2 0x5F5 DUP5 DUP3 DUP6 ADD PUSH2 0x58A JUMP JUMPDEST SWAP2 POP POP SWAP3 SWAP2 POP POP JUMP JUMPDEST PUSH0 DUP2 MLOAD SWAP1 POP SWAP2 SWAP1 POP JUMP JUMPDEST PUSH0 DUP3 DUP3 MSTORE PUSH1 0x20 DUP3 ADD SWAP1 POP SWAP3 SWAP2 POP POP JUMP JUMPDEST DUP3 DUP2 DUP4 MCOPY PUSH0 DUP4 DUP4 ADD MSTORE POP POP POP JUMP JUMPDEST PUSH0 PUSH2 0x630 DUP3 PUSH2 0x5FE JUMP JUMPDEST PUSH2 0x63A DUP2 DUP6 PUSH2 0x608 JUMP JUMPDEST SWAP4 POP PUSH2 0x64A DUP2 DUP6 PUSH1 0x20 DUP7 ADD PUSH2 0x618 JUMP JUMPDEST PUSH2 0x653 DUP2 PUSH2 0x483 JUMP JUMPDEST DUP5 ADD SWAP2 POP POP SWAP3 SWAP2 POP POP JUMP JUMPDEST PUSH0 PUSH1 0x20 DUP3 ADD SWAP1 POP DUP2 DUP2 SUB PUSH0 DUP4 ADD MSTORE PUSH2 0x676 DUP2 DUP5 PUSH2 0x626 JUMP JUMPDEST SWAP1 POP SWAP3 SWAP2 POP POP JUMP JUMPDEST PUSH32 0x4E487B7100000000000000000000000000000000000000000000000000000000 PUSH0 MSTORE PUSH1 0x12 PUSH1 0x4 MSTORE PUSH1 0x24 PUSH0 REVERT JUMPDEST PUSH0 PUSH2 0x6B5 DUP3 PUSH2 0x364 JUMP JUMPDEST SWAP2 POP PUSH2 0x6C0 DUP4 PUSH2 0x364 JUMP JUMPDEST SWAP3 POP DUP3 PUSH2 0x6D0 JUMPI PUSH2 0x6CF PUSH2 0x67E JUMP JUMPDEST JUMPDEST DUP3 DUP3 MOD SWAP1 POP SWAP3 SWAP2 POP POP JUMP JUMPDEST PUSH32 0x4E487B7100000000000000000000000000000000000000000000000000000000 PUSH0 MSTORE PUSH1 0x11 PUSH1 0x4 MSTORE PUSH1 0x24 PUSH0 REVERT JUMPDEST PUSH0 PUSH2 0x712 DUP3 PUSH2 0x3F5 JUMP JUMPDEST SWAP2 POP PUSH32 0x8000000000000000000000000000000000000000000000000000000000000000 DUP3 SUB PUSH2 0x744 JUMPI PUSH2 0x743 PUSH2 0x6DB JUMP JUMPDEST JUMPDEST DUP2 PUSH0 SUB SWAP1 POP SWAP2 SWAP1 POP JUMP JUMPDEST PUSH0 DUP2 SWAP1 POP SWAP3 SWAP2 POP POP JUMP JUMPDEST PUSH32 0x4A6F616E00000000000000000000000000000000000000000000000000000000 PUSH0 DUP3 ADD MSTORE POP JUMP JUMPDEST PUSH0 PUSH2 0x78C PUSH1 0x4 DUP4 PUSH2 0x74E JUMP JUMPDEST SWAP2 POP PUSH2 0x797 DUP3 PUSH2 0x758 JUMP JUMPDEST PUSH1 0x4 DUP3 ADD SWAP1 POP SWAP2 SWAP1 POP JUMP JUMPDEST PUSH0 PUSH2 0x7AC DUP3 PUSH2 0x780 JUMP JUMPDEST SWAP2 POP DUP2 SWAP1 POP SWAP2 SWAP1 POP JUMP JUMPDEST PUSH0 PUSH2 0x7C0 DUP3 PUSH2 0x5FE JUMP JUMPDEST PUSH2 0x7CA DUP2 DUP6 PUSH2 0x74E JUMP JUMPDEST SWAP4 POP PUSH2 0x7DA DUP2 DUP6 PUSH1 0x20 DUP7 ADD PUSH2 0x618 JUMP JUMPDEST DUP1 DUP5 ADD SWAP2 POP POP SWAP3 SWAP2 POP POP JUMP JUMPDEST PUSH0 PUSH2 0x7F1 DUP3 DUP5 PUSH2 0x7B6 JUMP JUMPDEST SWAP2 POP DUP2 SWAP1 POP SWAP3 SWAP2 POP POP JUMP JUMPDEST PUSH32 0x4761627269656C00000000000000000000000000000000000000000000000000 PUSH0 DUP3 ADD MSTORE POP JUMP JUMPDEST PUSH0 PUSH2 0x830 PUSH1 0x7 DUP4 PUSH2 0x74E JUMP JUMPDEST SWAP2 POP PUSH2 0x83B DUP3 PUSH2 0x7FC JUMP JUMPDEST PUSH1 0x7 DUP3 ADD SWAP1 POP SWAP2 SWAP1 POP JUMP JUMPDEST PUSH0 PUSH2 0x850 DUP3 PUSH2 0x824 JUMP JUMPDEST SWAP2 POP DUP2 SWAP1 POP SWAP2 SWAP1 POP JUMP JUMPDEST PUSH32 0x4D61726961000000000000000000000000000000000000000000000000000000 PUSH0 DUP3 ADD MSTORE POP JUMP JUMPDEST PUSH0 PUSH2 0x88E PUSH1 0x5 DUP4 PUSH2 0x74E JUMP JUMPDEST SWAP2 POP PUSH2 0x899 DUP3 PUSH2 0x85A JUMP JUMPDEST PUSH1 0x5 DUP3 ADD SWAP1 POP SWAP2 SWAP1 POP JUMP JUMPDEST PUSH0 PUSH2 0x8AE DUP3 PUSH2 0x882 JUMP JUMPDEST SWAP2 POP DUP2 SWAP1 POP SWAP2 SWAP1 POP JUMP INVALID BASEFEE PUSH2 0x7320 PUSH23 0x6F7461646F206120756E2063616E64696461746F207175 PUSH6 0x206E6F206573 PUSH21 0xC3A120656E206C61206C6973746148617320766F74 PUSH2 0x646F KECCAK256 PUSH4 0x6F727265 PUSH4 0x74616D65 PUSH15 0x74652061204761627269656CA26469 PUSH17 0x667358221220EA5283E394F6253C009FD9 BASEFEE PUSH22 0x3822039F2C9246ED368646AA44034924B9A3C664736F PUSH13 0x634300081A0033000000000000 "
				},
				"gasEstimates": {
					"creation": {
						"codeDepositCost": "474000",
						"executionCost": "509",
						"totalCost": "474509"
					},
					"external": {
						"parTresCifras(uint256)": "infinite",
						"probarSuerte(uint256)": "624",
						"valorAbsoluto(int256)": "infinite",
						"votar(string)": "infinite"
					}
				},
				"methodIdentifiers": {
					"parTresCifras(uint256)": "79ac27d4",
					"probarSuerte(uint256)": "37eddd17",
					"valorAbsoluto(int256)": "7d825142",
					"votar(string)": "ce3fe641"
				}
			},
			"storageLayout": {
				"storage": [],
				"types": null
			},
			"userdoc": {
				"kind": "user",
				"methods": {},
				"version": 1
			}
		}
	}
}