{
	"BLOQUE 1 - Conceptos básicos de Solidity/Tema 6 - Bucles y condicionales/bucle_for.sol": {
		"bucle_for": {
			"abi": [
				{
					"inputs": [],
					"name": "asociar",
					"outputs": [],
					"stateMutability": "nonpayable",
					"type": "function"
				},
				{
					"inputs": [],
					"name": "comprobarAsociacion",
					"outputs": [
						{
							"internalType": "bool",
							"name": "",
							"type": "bool"
						},
						{
							"internalType": "address",
							"name": "",
							"type": "address"
						}
					],
					"stateMutability": "view",
					"type": "function"
				},
				{
					"inputs": [
						{
							"internalType": "uint256",
							"name": "_numero",
							"type": "uint256"
						}
					],
					"name": "suma",
					"outputs": [
						{
							"internalType": "uint256",
							"name": "",
							"type": "uint256"
						}
					],
					"stateMutability": "pure",
					"type": "function"
				},
				{
					"inputs": [],
					"name": "sumaFactorial",
					"outputs": [
						{
							"internalType": "uint256",
							"name": "",
							"type": "uint256"
						}
					],
					"stateMutability": "pure",
					"type": "function"
				}
			],
			"devdoc": {
				"kind": "dev",
				"methods": {},
				"version": 1
			},
			"evm": {
				"assembly": "    /* \"BLOQUE 1 - Conceptos b\\xc3\\xa1sicos de Solidity/Tema 6 - Bucles y condicionales/bucle_for.sol\":90:1388  contract bucle_for{... */\n  mstore(0x40, 0x80)\n  callvalue\n  dup1\n  iszero\n  tag_1\n  jumpi\n  0x00\n  dup1\n  revert\ntag_1:\n  pop\n  dataSize(sub_0)\n  dup1\n  dataOffset(sub_0)\n  0x00\n  codecopy\n  0x00\n  return\nstop\n\nsub_0: assembly {\n        /* \"BLOQUE 1 - Conceptos b\\xc3\\xa1sicos de Solidity/Tema 6 - Bucles y condicionales/bucle_for.sol\":90:1388  contract bucle_for{... */\n      mstore(0x40, 0x80)\n      callvalue\n      dup1\n      iszero\n      tag_1\n      jumpi\n      0x00\n      dup1\n      revert\n    tag_1:\n      pop\n      jumpi(tag_2, lt(calldatasize, 0x04))\n      shr(0xe0, calldataload(0x00))\n      dup1\n      0x41806a13\n      eq\n      tag_3\n      jumpi\n      dup1\n      0x96f6611d\n      eq\n      tag_4\n      jumpi\n      dup1\n      0xa98ce68b\n      eq\n      tag_5\n      jumpi\n      dup1\n      0xddef5a4a\n      eq\n      tag_6\n      jumpi\n    tag_2:\n      0x00\n      dup1\n      revert\n        /* \"BLOQUE 1 - Conceptos b\\xc3\\xa1sicos de Solidity/Tema 6 - Bucles y condicionales/bucle_for.sol\":686:933  function comprobarAsociacion() public view returns(bool, address){... */\n    tag_3:\n      tag_7\n      tag_8\n      jump\t// in\n    tag_7:\n      mload(0x40)\n      tag_9\n      swap3\n      swap2\n      swap1\n      tag_10\n      jump\t// in\n    tag_9:\n      mload(0x40)\n      dup1\n      swap2\n      sub\n      swap1\n      return\n        /* \"BLOQUE 1 - Conceptos b\\xc3\\xa1sicos de Solidity/Tema 6 - Bucles y condicionales/bucle_for.sol\":1031:1386  function sumaFactorial() public pure returns(uint){... */\n    tag_4:\n      tag_11\n      tag_12\n      jump\t// in\n    tag_11:\n      mload(0x40)\n      tag_13\n      swap2\n      swap1\n      tag_14\n      jump\t// in\n    tag_13:\n      mload(0x40)\n      dup1\n      swap2\n      sub\n      swap1\n      return\n        /* \"BLOQUE 1 - Conceptos b\\xc3\\xa1sicos de Solidity/Tema 6 - Bucles y condicionales/bucle_for.sol\":542:612  function asociar() public{... */\n    tag_5:\n      tag_15\n      tag_16\n      jump\t// in\n    tag_15:\n      stop\n        /* \"BLOQUE 1 - Conceptos b\\xc3\\xa1sicos de Solidity/Tema 6 - Bucles y condicionales/bucle_for.sol\":195:416  function suma(uint _numero) public pure returns(uint){... */\n    tag_6:\n      tag_17\n      0x04\n      dup1\n      calldatasize\n      sub\n      dup2\n      add\n      swap1\n      tag_18\n      swap2\n      swap1\n      tag_19\n      jump\t// in\n    tag_18:\n      tag_20\n      jump\t// in\n    tag_17:\n      mload(0x40)\n      tag_21\n      swap2\n      swap1\n      tag_14\n      jump\t// in\n    tag_21:\n      mload(0x40)\n      dup1\n      swap2\n      sub\n      swap1\n      return\n        /* \"BLOQUE 1 - Conceptos b\\xc3\\xa1sicos de Solidity/Tema 6 - Bucles y condicionales/bucle_for.sol\":686:933  function comprobarAsociacion() public view returns(bool, address){... */\n    tag_8:\n        /* \"BLOQUE 1 - Conceptos b\\xc3\\xa1sicos de Solidity/Tema 6 - Bucles y condicionales/bucle_for.sol\":737:741  bool */\n      0x00\n        /* \"BLOQUE 1 - Conceptos b\\xc3\\xa1sicos de Solidity/Tema 6 - Bucles y condicionales/bucle_for.sol\":743:750  address */\n      dup1\n        /* \"BLOQUE 1 - Conceptos b\\xc3\\xa1sicos de Solidity/Tema 6 - Bucles y condicionales/bucle_for.sol\":774:780  uint i */\n      0x00\n        /* \"BLOQUE 1 - Conceptos b\\xc3\\xa1sicos de Solidity/Tema 6 - Bucles y condicionales/bucle_for.sol\":770:927  for(uint i=0; i< direcciones.length; i++){... */\n    tag_23:\n        /* \"BLOQUE 1 - Conceptos b\\xc3\\xa1sicos de Solidity/Tema 6 - Bucles y condicionales/bucle_for.sol\":787:798  direcciones */\n      0x00\n        /* \"BLOQUE 1 - Conceptos b\\xc3\\xa1sicos de Solidity/Tema 6 - Bucles y condicionales/bucle_for.sol\":787:805  direcciones.length */\n      dup1\n      sload\n      swap1\n      pop\n        /* \"BLOQUE 1 - Conceptos b\\xc3\\xa1sicos de Solidity/Tema 6 - Bucles y condicionales/bucle_for.sol\":784:785  i */\n      dup2\n        /* \"BLOQUE 1 - Conceptos b\\xc3\\xa1sicos de Solidity/Tema 6 - Bucles y condicionales/bucle_for.sol\":784:805  i< direcciones.length */\n      lt\n        /* \"BLOQUE 1 - Conceptos b\\xc3\\xa1sicos de Solidity/Tema 6 - Bucles y condicionales/bucle_for.sol\":770:927  for(uint i=0; i< direcciones.length; i++){... */\n      iszero\n      tag_24\n      jumpi\n        /* \"BLOQUE 1 - Conceptos b\\xc3\\xa1sicos de Solidity/Tema 6 - Bucles y condicionales/bucle_for.sol\":840:851  direcciones */\n      0x00\n        /* \"BLOQUE 1 - Conceptos b\\xc3\\xa1sicos de Solidity/Tema 6 - Bucles y condicionales/bucle_for.sol\":852:853  i */\n      dup2\n        /* \"BLOQUE 1 - Conceptos b\\xc3\\xa1sicos de Solidity/Tema 6 - Bucles y condicionales/bucle_for.sol\":840:854  direcciones[i] */\n      dup2\n      sload\n      dup2\n      lt\n      tag_26\n      jumpi\n      tag_27\n      tag_28\n      jump\t// in\n    tag_27:\n    tag_26:\n      swap1\n      0x00\n      mstore\n      keccak256(0x00, 0x20)\n      add\n      0x00\n      swap1\n      sload\n      swap1\n      0x0100\n      exp\n      swap1\n      div\n      0xffffffffffffffffffffffffffffffffffffffff\n      and\n        /* \"BLOQUE 1 - Conceptos b\\xc3\\xa1sicos de Solidity/Tema 6 - Bucles y condicionales/bucle_for.sol\":828:854  msg.sender==direcciones[i] */\n      0xffffffffffffffffffffffffffffffffffffffff\n      and\n        /* \"BLOQUE 1 - Conceptos b\\xc3\\xa1sicos de Solidity/Tema 6 - Bucles y condicionales/bucle_for.sol\":828:838  msg.sender */\n      caller\n        /* \"BLOQUE 1 - Conceptos b\\xc3\\xa1sicos de Solidity/Tema 6 - Bucles y condicionales/bucle_for.sol\":828:854  msg.sender==direcciones[i] */\n      0xffffffffffffffffffffffffffffffffffffffff\n      and\n      sub\n        /* \"BLOQUE 1 - Conceptos b\\xc3\\xa1sicos de Solidity/Tema 6 - Bucles y condicionales/bucle_for.sol\":825:917  if(msg.sender==direcciones[i]){... */\n      tag_30\n      jumpi\n        /* \"BLOQUE 1 - Conceptos b\\xc3\\xa1sicos de Solidity/Tema 6 - Bucles y condicionales/bucle_for.sol\":881:885  true */\n      0x01\n        /* \"BLOQUE 1 - Conceptos b\\xc3\\xa1sicos de Solidity/Tema 6 - Bucles y condicionales/bucle_for.sol\":887:898  direcciones */\n      0x00\n        /* \"BLOQUE 1 - Conceptos b\\xc3\\xa1sicos de Solidity/Tema 6 - Bucles y condicionales/bucle_for.sol\":899:900  i */\n      dup3\n        /* \"BLOQUE 1 - Conceptos b\\xc3\\xa1sicos de Solidity/Tema 6 - Bucles y condicionales/bucle_for.sol\":887:901  direcciones[i] */\n      dup2\n      sload\n      dup2\n      lt\n      tag_31\n      jumpi\n      tag_32\n      tag_28\n      jump\t// in\n    tag_32:\n    tag_31:\n      swap1\n      0x00\n      mstore\n      keccak256(0x00, 0x20)\n      add\n      0x00\n      swap1\n      sload\n      swap1\n      0x0100\n      exp\n      swap1\n      div\n      0xffffffffffffffffffffffffffffffffffffffff\n      and\n        /* \"BLOQUE 1 - Conceptos b\\xc3\\xa1sicos de Solidity/Tema 6 - Bucles y condicionales/bucle_for.sol\":873:902  return (true, direcciones[i]) */\n      swap3\n      pop\n      swap3\n      pop\n      pop\n      jump(tag_22)\n        /* \"BLOQUE 1 - Conceptos b\\xc3\\xa1sicos de Solidity/Tema 6 - Bucles y condicionales/bucle_for.sol\":825:917  if(msg.sender==direcciones[i]){... */\n    tag_30:\n        /* \"BLOQUE 1 - Conceptos b\\xc3\\xa1sicos de Solidity/Tema 6 - Bucles y condicionales/bucle_for.sol\":807:810  i++ */\n      dup1\n      dup1\n      0x01\n      add\n      swap2\n      pop\n      pop\n        /* \"BLOQUE 1 - Conceptos b\\xc3\\xa1sicos de Solidity/Tema 6 - Bucles y condicionales/bucle_for.sol\":770:927  for(uint i=0; i< direcciones.length; i++){... */\n      jump(tag_23)\n    tag_24:\n      pop\n        /* \"BLOQUE 1 - Conceptos b\\xc3\\xa1sicos de Solidity/Tema 6 - Bucles y condicionales/bucle_for.sol\":686:933  function comprobarAsociacion() public view returns(bool, address){... */\n    tag_22:\n      swap1\n      swap2\n      jump\t// out\n        /* \"BLOQUE 1 - Conceptos b\\xc3\\xa1sicos de Solidity/Tema 6 - Bucles y condicionales/bucle_for.sol\":1031:1386  function sumaFactorial() public pure returns(uint){... */\n    tag_12:\n        /* \"BLOQUE 1 - Conceptos b\\xc3\\xa1sicos de Solidity/Tema 6 - Bucles y condicionales/bucle_for.sol\":1076:1080  uint */\n      0x00\n        /* \"BLOQUE 1 - Conceptos b\\xc3\\xa1sicos de Solidity/Tema 6 - Bucles y condicionales/bucle_for.sol\":1100:1109  uint suma */\n      dup1\n        /* \"BLOQUE 1 - Conceptos b\\xc3\\xa1sicos de Solidity/Tema 6 - Bucles y condicionales/bucle_for.sol\":1110:1111  0 */\n      0x00\n        /* \"BLOQUE 1 - Conceptos b\\xc3\\xa1sicos de Solidity/Tema 6 - Bucles y condicionales/bucle_for.sol\":1100:1111  uint suma=0 */\n      swap1\n      pop\n        /* \"BLOQUE 1 - Conceptos b\\xc3\\xa1sicos de Solidity/Tema 6 - Bucles y condicionales/bucle_for.sol\":1125:1131  uint i */\n      0x00\n        /* \"BLOQUE 1 - Conceptos b\\xc3\\xa1sicos de Solidity/Tema 6 - Bucles y condicionales/bucle_for.sol\":1133:1134  1 */\n      0x01\n        /* \"BLOQUE 1 - Conceptos b\\xc3\\xa1sicos de Solidity/Tema 6 - Bucles y condicionales/bucle_for.sol\":1125:1134  uint i =1 */\n      swap1\n      pop\n        /* \"BLOQUE 1 - Conceptos b\\xc3\\xa1sicos de Solidity/Tema 6 - Bucles y condicionales/bucle_for.sol\":1121:1359  for(uint i =1; i<=10; i++){... */\n    tag_35:\n        /* \"BLOQUE 1 - Conceptos b\\xc3\\xa1sicos de Solidity/Tema 6 - Bucles y condicionales/bucle_for.sol\":1139:1141  10 */\n      0x0a\n        /* \"BLOQUE 1 - Conceptos b\\xc3\\xa1sicos de Solidity/Tema 6 - Bucles y condicionales/bucle_for.sol\":1136:1137  i */\n      dup2\n        /* \"BLOQUE 1 - Conceptos b\\xc3\\xa1sicos de Solidity/Tema 6 - Bucles y condicionales/bucle_for.sol\":1136:1141  i<=10 */\n      gt\n        /* \"BLOQUE 1 - Conceptos b\\xc3\\xa1sicos de Solidity/Tema 6 - Bucles y condicionales/bucle_for.sol\":1121:1359  for(uint i =1; i<=10; i++){... */\n      tag_36\n      jumpi\n        /* \"BLOQUE 1 - Conceptos b\\xc3\\xa1sicos de Solidity/Tema 6 - Bucles y condicionales/bucle_for.sol\":1174:1188  uint factorial */\n      0x00\n        /* \"BLOQUE 1 - Conceptos b\\xc3\\xa1sicos de Solidity/Tema 6 - Bucles y condicionales/bucle_for.sol\":1191:1192  1 */\n      0x01\n        /* \"BLOQUE 1 - Conceptos b\\xc3\\xa1sicos de Solidity/Tema 6 - Bucles y condicionales/bucle_for.sol\":1174:1192  uint factorial = 1 */\n      swap1\n      pop\n        /* \"BLOQUE 1 - Conceptos b\\xc3\\xa1sicos de Solidity/Tema 6 - Bucles y condicionales/bucle_for.sol\":1223:1229  uint j */\n      0x00\n        /* \"BLOQUE 1 - Conceptos b\\xc3\\xa1sicos de Solidity/Tema 6 - Bucles y condicionales/bucle_for.sol\":1230:1231  2 */\n      0x02\n        /* \"BLOQUE 1 - Conceptos b\\xc3\\xa1sicos de Solidity/Tema 6 - Bucles y condicionales/bucle_for.sol\":1223:1231  uint j=2 */\n      swap1\n      pop\n        /* \"BLOQUE 1 - Conceptos b\\xc3\\xa1sicos de Solidity/Tema 6 - Bucles y condicionales/bucle_for.sol\":1219:1299  for(uint j=2; j<=i; j++){... */\n    tag_38:\n        /* \"BLOQUE 1 - Conceptos b\\xc3\\xa1sicos de Solidity/Tema 6 - Bucles y condicionales/bucle_for.sol\":1236:1237  i */\n      dup3\n        /* \"BLOQUE 1 - Conceptos b\\xc3\\xa1sicos de Solidity/Tema 6 - Bucles y condicionales/bucle_for.sol\":1233:1234  j */\n      dup2\n        /* \"BLOQUE 1 - Conceptos b\\xc3\\xa1sicos de Solidity/Tema 6 - Bucles y condicionales/bucle_for.sol\":1233:1237  j<=i */\n      gt\n        /* \"BLOQUE 1 - Conceptos b\\xc3\\xa1sicos de Solidity/Tema 6 - Bucles y condicionales/bucle_for.sol\":1219:1299  for(uint j=2; j<=i; j++){... */\n      tag_39\n      jumpi\n        /* \"BLOQUE 1 - Conceptos b\\xc3\\xa1sicos de Solidity/Tema 6 - Bucles y condicionales/bucle_for.sol\":1283:1284  j */\n      dup1\n        /* \"BLOQUE 1 - Conceptos b\\xc3\\xa1sicos de Solidity/Tema 6 - Bucles y condicionales/bucle_for.sol\":1273:1282  factorial */\n      dup3\n        /* \"BLOQUE 1 - Conceptos b\\xc3\\xa1sicos de Solidity/Tema 6 - Bucles y condicionales/bucle_for.sol\":1273:1284  factorial*j */\n      tag_41\n      swap2\n      swap1\n      tag_42\n      jump\t// in\n    tag_41:\n        /* \"BLOQUE 1 - Conceptos b\\xc3\\xa1sicos de Solidity/Tema 6 - Bucles y condicionales/bucle_for.sol\":1261:1284  factorial = factorial*j */\n      swap2\n      pop\n        /* \"BLOQUE 1 - Conceptos b\\xc3\\xa1sicos de Solidity/Tema 6 - Bucles y condicionales/bucle_for.sol\":1239:1242  j++ */\n      dup1\n      dup1\n      tag_43\n      swap1\n      tag_44\n      jump\t// in\n    tag_43:\n      swap2\n      pop\n      pop\n        /* \"BLOQUE 1 - Conceptos b\\xc3\\xa1sicos de Solidity/Tema 6 - Bucles y condicionales/bucle_for.sol\":1219:1299  for(uint j=2; j<=i; j++){... */\n      jump(tag_38)\n    tag_39:\n      pop\n        /* \"BLOQUE 1 - Conceptos b\\xc3\\xa1sicos de Solidity/Tema 6 - Bucles y condicionales/bucle_for.sol\":1339:1348  factorial */\n      dup1\n        /* \"BLOQUE 1 - Conceptos b\\xc3\\xa1sicos de Solidity/Tema 6 - Bucles y condicionales/bucle_for.sol\":1332:1336  suma */\n      dup4\n        /* \"BLOQUE 1 - Conceptos b\\xc3\\xa1sicos de Solidity/Tema 6 - Bucles y condicionales/bucle_for.sol\":1332:1348  suma + factorial */\n      tag_45\n      swap2\n      swap1\n      tag_46\n      jump\t// in\n    tag_45:\n        /* \"BLOQUE 1 - Conceptos b\\xc3\\xa1sicos de Solidity/Tema 6 - Bucles y condicionales/bucle_for.sol\":1325:1348  suma = suma + factorial */\n      swap3\n      pop\n        /* \"BLOQUE 1 - Conceptos b\\xc3\\xa1sicos de Solidity/Tema 6 - Bucles y condicionales/bucle_for.sol\":1147:1359  {... */\n      pop\n        /* \"BLOQUE 1 - Conceptos b\\xc3\\xa1sicos de Solidity/Tema 6 - Bucles y condicionales/bucle_for.sol\":1143:1146  i++ */\n      dup1\n      dup1\n      tag_47\n      swap1\n      tag_44\n      jump\t// in\n    tag_47:\n      swap2\n      pop\n      pop\n        /* \"BLOQUE 1 - Conceptos b\\xc3\\xa1sicos de Solidity/Tema 6 - Bucles y condicionales/bucle_for.sol\":1121:1359  for(uint i =1; i<=10; i++){... */\n      jump(tag_35)\n    tag_36:\n      pop\n        /* \"BLOQUE 1 - Conceptos b\\xc3\\xa1sicos de Solidity/Tema 6 - Bucles y condicionales/bucle_for.sol\":1375:1379  suma */\n      dup1\n        /* \"BLOQUE 1 - Conceptos b\\xc3\\xa1sicos de Solidity/Tema 6 - Bucles y condicionales/bucle_for.sol\":1368:1379  return suma */\n      swap2\n      pop\n      pop\n        /* \"BLOQUE 1 - Conceptos b\\xc3\\xa1sicos de Solidity/Tema 6 - Bucles y condicionales/bucle_for.sol\":1031:1386  function sumaFactorial() public pure returns(uint){... */\n      swap1\n      jump\t// out\n        /* \"BLOQUE 1 - Conceptos b\\xc3\\xa1sicos de Solidity/Tema 6 - Bucles y condicionales/bucle_for.sol\":542:612  function asociar() public{... */\n    tag_16:\n        /* \"BLOQUE 1 - Conceptos b\\xc3\\xa1sicos de Solidity/Tema 6 - Bucles y condicionales/bucle_for.sol\":577:588  direcciones */\n      0x00\n        /* \"BLOQUE 1 - Conceptos b\\xc3\\xa1sicos de Solidity/Tema 6 - Bucles y condicionales/bucle_for.sol\":594:604  msg.sender */\n      caller\n        /* \"BLOQUE 1 - Conceptos b\\xc3\\xa1sicos de Solidity/Tema 6 - Bucles y condicionales/bucle_for.sol\":577:605  direcciones.push(msg.sender) */\n      swap1\n      dup1\n      0x01\n      dup2\n      sload\n      add\n      dup1\n      dup3\n      sstore\n      dup1\n      swap2\n      pop\n      pop\n      0x01\n      swap1\n      sub\n      swap1\n      0x00\n      mstore\n      keccak256(0x00, 0x20)\n      add\n      0x00\n      swap1\n      swap2\n      swap1\n      swap2\n      swap1\n      swap2\n      0x0100\n      exp\n      dup2\n      sload\n      dup2\n      0xffffffffffffffffffffffffffffffffffffffff\n      mul\n      not\n      and\n      swap1\n      dup4\n      0xffffffffffffffffffffffffffffffffffffffff\n      and\n      mul\n      or\n      swap1\n      sstore\n      pop\n        /* \"BLOQUE 1 - Conceptos b\\xc3\\xa1sicos de Solidity/Tema 6 - Bucles y condicionales/bucle_for.sol\":542:612  function asociar() public{... */\n      jump\t// out\n        /* \"BLOQUE 1 - Conceptos b\\xc3\\xa1sicos de Solidity/Tema 6 - Bucles y condicionales/bucle_for.sol\":195:416  function suma(uint _numero) public pure returns(uint){... */\n    tag_20:\n        /* \"BLOQUE 1 - Conceptos b\\xc3\\xa1sicos de Solidity/Tema 6 - Bucles y condicionales/bucle_for.sol\":243:247  uint */\n      0x00\n        /* \"BLOQUE 1 - Conceptos b\\xc3\\xa1sicos de Solidity/Tema 6 - Bucles y condicionales/bucle_for.sol\":267:276  uint Suma */\n      dup1\n        /* \"BLOQUE 1 - Conceptos b\\xc3\\xa1sicos de Solidity/Tema 6 - Bucles y condicionales/bucle_for.sol\":279:280  0 */\n      0x00\n        /* \"BLOQUE 1 - Conceptos b\\xc3\\xa1sicos de Solidity/Tema 6 - Bucles y condicionales/bucle_for.sol\":267:280  uint Suma = 0 */\n      swap1\n      pop\n        /* \"BLOQUE 1 - Conceptos b\\xc3\\xa1sicos de Solidity/Tema 6 - Bucles y condicionales/bucle_for.sol\":303:309  uint i */\n      0x00\n        /* \"BLOQUE 1 - Conceptos b\\xc3\\xa1sicos de Solidity/Tema 6 - Bucles y condicionales/bucle_for.sol\":311:318  _numero */\n      dup4\n        /* \"BLOQUE 1 - Conceptos b\\xc3\\xa1sicos de Solidity/Tema 6 - Bucles y condicionales/bucle_for.sol\":303:318  uint i =_numero */\n      swap1\n      pop\n        /* \"BLOQUE 1 - Conceptos b\\xc3\\xa1sicos de Solidity/Tema 6 - Bucles y condicionales/bucle_for.sol\":299:380  for(uint i =_numero; i<(100+_numero); i++){... */\n    tag_51:\n        /* \"BLOQUE 1 - Conceptos b\\xc3\\xa1sicos de Solidity/Tema 6 - Bucles y condicionales/bucle_for.sol\":327:334  _numero */\n      dup4\n        /* \"BLOQUE 1 - Conceptos b\\xc3\\xa1sicos de Solidity/Tema 6 - Bucles y condicionales/bucle_for.sol\":323:326  100 */\n      0x64\n        /* \"BLOQUE 1 - Conceptos b\\xc3\\xa1sicos de Solidity/Tema 6 - Bucles y condicionales/bucle_for.sol\":323:334  100+_numero */\n      tag_54\n      swap2\n      swap1\n      tag_46\n      jump\t// in\n    tag_54:\n        /* \"BLOQUE 1 - Conceptos b\\xc3\\xa1sicos de Solidity/Tema 6 - Bucles y condicionales/bucle_for.sol\":320:321  i */\n      dup2\n        /* \"BLOQUE 1 - Conceptos b\\xc3\\xa1sicos de Solidity/Tema 6 - Bucles y condicionales/bucle_for.sol\":320:335  i<(100+_numero) */\n      lt\n        /* \"BLOQUE 1 - Conceptos b\\xc3\\xa1sicos de Solidity/Tema 6 - Bucles y condicionales/bucle_for.sol\":299:380  for(uint i =_numero; i<(100+_numero); i++){... */\n      iszero\n      tag_52\n      jumpi\n        /* \"BLOQUE 1 - Conceptos b\\xc3\\xa1sicos de Solidity/Tema 6 - Bucles y condicionales/bucle_for.sol\":368:369  i */\n      dup1\n        /* \"BLOQUE 1 - Conceptos b\\xc3\\xa1sicos de Solidity/Tema 6 - Bucles y condicionales/bucle_for.sol\":362:366  Suma */\n      dup3\n        /* \"BLOQUE 1 - Conceptos b\\xc3\\xa1sicos de Solidity/Tema 6 - Bucles y condicionales/bucle_for.sol\":362:369  Suma +i */\n      tag_55\n      swap2\n      swap1\n      tag_46\n      jump\t// in\n    tag_55:\n        /* \"BLOQUE 1 - Conceptos b\\xc3\\xa1sicos de Solidity/Tema 6 - Bucles y condicionales/bucle_for.sol\":355:369  Suma = Suma +i */\n      swap2\n      pop\n        /* \"BLOQUE 1 - Conceptos b\\xc3\\xa1sicos de Solidity/Tema 6 - Bucles y condicionales/bucle_for.sol\":337:340  i++ */\n      dup1\n      dup1\n      0x01\n      add\n      swap2\n      pop\n      pop\n        /* \"BLOQUE 1 - Conceptos b\\xc3\\xa1sicos de Solidity/Tema 6 - Bucles y condicionales/bucle_for.sol\":299:380  for(uint i =_numero; i<(100+_numero); i++){... */\n      jump(tag_51)\n    tag_52:\n      pop\n        /* \"BLOQUE 1 - Conceptos b\\xc3\\xa1sicos de Solidity/Tema 6 - Bucles y condicionales/bucle_for.sol\":405:409  Suma */\n      dup1\n        /* \"BLOQUE 1 - Conceptos b\\xc3\\xa1sicos de Solidity/Tema 6 - Bucles y condicionales/bucle_for.sol\":398:409  return Suma */\n      swap2\n      pop\n      pop\n        /* \"BLOQUE 1 - Conceptos b\\xc3\\xa1sicos de Solidity/Tema 6 - Bucles y condicionales/bucle_for.sol\":195:416  function suma(uint _numero) public pure returns(uint){... */\n      swap2\n      swap1\n      pop\n      jump\t// out\n        /* \"#utility.yul\":7:97   */\n    tag_56:\n        /* \"#utility.yul\":41:48   */\n      0x00\n        /* \"#utility.yul\":84:89   */\n      dup2\n        /* \"#utility.yul\":77:90   */\n      iszero\n        /* \"#utility.yul\":70:91   */\n      iszero\n        /* \"#utility.yul\":59:91   */\n      swap1\n      pop\n        /* \"#utility.yul\":7:97   */\n      swap2\n      swap1\n      pop\n      jump\t// out\n        /* \"#utility.yul\":103:212   */\n    tag_57:\n        /* \"#utility.yul\":184:205   */\n      tag_72\n        /* \"#utility.yul\":199:204   */\n      dup2\n        /* \"#utility.yul\":184:205   */\n      tag_56\n      jump\t// in\n    tag_72:\n        /* \"#utility.yul\":179:182   */\n      dup3\n        /* \"#utility.yul\":172:206   */\n      mstore\n        /* \"#utility.yul\":103:212   */\n      pop\n      pop\n      jump\t// out\n        /* \"#utility.yul\":218:344   */\n    tag_58:\n        /* \"#utility.yul\":255:262   */\n      0x00\n        /* \"#utility.yul\":295:337   */\n      0xffffffffffffffffffffffffffffffffffffffff\n        /* \"#utility.yul\":288:293   */\n      dup3\n        /* \"#utility.yul\":284:338   */\n      and\n        /* \"#utility.yul\":273:338   */\n      swap1\n      pop\n        /* \"#utility.yul\":218:344   */\n      swap2\n      swap1\n      pop\n      jump\t// out\n        /* \"#utility.yul\":350:446   */\n    tag_59:\n        /* \"#utility.yul\":387:394   */\n      0x00\n        /* \"#utility.yul\":416:440   */\n      tag_75\n        /* \"#utility.yul\":434:439   */\n      dup3\n        /* \"#utility.yul\":416:440   */\n      tag_58\n      jump\t// in\n    tag_75:\n        /* \"#utility.yul\":405:440   */\n      swap1\n      pop\n        /* \"#utility.yul\":350:446   */\n      swap2\n      swap1\n      pop\n      jump\t// out\n        /* \"#utility.yul\":452:570   */\n    tag_60:\n        /* \"#utility.yul\":539:563   */\n      tag_77\n        /* \"#utility.yul\":557:562   */\n      dup2\n        /* \"#utility.yul\":539:563   */\n      tag_59\n      jump\t// in\n    tag_77:\n        /* \"#utility.yul\":534:537   */\n      dup3\n        /* \"#utility.yul\":527:564   */\n      mstore\n        /* \"#utility.yul\":452:570   */\n      pop\n      pop\n      jump\t// out\n        /* \"#utility.yul\":576:896   */\n    tag_10:\n        /* \"#utility.yul\":691:695   */\n      0x00\n        /* \"#utility.yul\":729:731   */\n      0x40\n        /* \"#utility.yul\":718:727   */\n      dup3\n        /* \"#utility.yul\":714:732   */\n      add\n        /* \"#utility.yul\":706:732   */\n      swap1\n      pop\n        /* \"#utility.yul\":742:807   */\n      tag_79\n        /* \"#utility.yul\":804:805   */\n      0x00\n        /* \"#utility.yul\":793:802   */\n      dup4\n        /* \"#utility.yul\":789:806   */\n      add\n        /* \"#utility.yul\":780:786   */\n      dup6\n        /* \"#utility.yul\":742:807   */\n      tag_57\n      jump\t// in\n    tag_79:\n        /* \"#utility.yul\":817:889   */\n      tag_80\n        /* \"#utility.yul\":885:887   */\n      0x20\n        /* \"#utility.yul\":874:883   */\n      dup4\n        /* \"#utility.yul\":870:888   */\n      add\n        /* \"#utility.yul\":861:867   */\n      dup5\n        /* \"#utility.yul\":817:889   */\n      tag_60\n      jump\t// in\n    tag_80:\n        /* \"#utility.yul\":576:896   */\n      swap4\n      swap3\n      pop\n      pop\n      pop\n      jump\t// out\n        /* \"#utility.yul\":902:979   */\n    tag_61:\n        /* \"#utility.yul\":939:946   */\n      0x00\n        /* \"#utility.yul\":968:973   */\n      dup2\n        /* \"#utility.yul\":957:973   */\n      swap1\n      pop\n        /* \"#utility.yul\":902:979   */\n      swap2\n      swap1\n      pop\n      jump\t// out\n        /* \"#utility.yul\":985:1103   */\n    tag_62:\n        /* \"#utility.yul\":1072:1096   */\n      tag_83\n        /* \"#utility.yul\":1090:1095   */\n      dup2\n        /* \"#utility.yul\":1072:1096   */\n      tag_61\n      jump\t// in\n    tag_83:\n        /* \"#utility.yul\":1067:1070   */\n      dup3\n        /* \"#utility.yul\":1060:1097   */\n      mstore\n        /* \"#utility.yul\":985:1103   */\n      pop\n      pop\n      jump\t// out\n        /* \"#utility.yul\":1109:1331   */\n    tag_14:\n        /* \"#utility.yul\":1202:1206   */\n      0x00\n        /* \"#utility.yul\":1240:1242   */\n      0x20\n        /* \"#utility.yul\":1229:1238   */\n      dup3\n        /* \"#utility.yul\":1225:1243   */\n      add\n        /* \"#utility.yul\":1217:1243   */\n      swap1\n      pop\n        /* \"#utility.yul\":1253:1324   */\n      tag_85\n        /* \"#utility.yul\":1321:1322   */\n      0x00\n        /* \"#utility.yul\":1310:1319   */\n      dup4\n        /* \"#utility.yul\":1306:1323   */\n      add\n        /* \"#utility.yul\":1297:1303   */\n      dup5\n        /* \"#utility.yul\":1253:1324   */\n      tag_62\n      jump\t// in\n    tag_85:\n        /* \"#utility.yul\":1109:1331   */\n      swap3\n      swap2\n      pop\n      pop\n      jump\t// out\n        /* \"#utility.yul\":1418:1535   */\n    tag_64:\n        /* \"#utility.yul\":1527:1528   */\n      0x00\n        /* \"#utility.yul\":1524:1525   */\n      dup1\n        /* \"#utility.yul\":1517:1529   */\n      revert\n        /* \"#utility.yul\":1664:1786   */\n    tag_66:\n        /* \"#utility.yul\":1737:1761   */\n      tag_90\n        /* \"#utility.yul\":1755:1760   */\n      dup2\n        /* \"#utility.yul\":1737:1761   */\n      tag_61\n      jump\t// in\n    tag_90:\n        /* \"#utility.yul\":1730:1735   */\n      dup2\n        /* \"#utility.yul\":1727:1762   */\n      eq\n        /* \"#utility.yul\":1717:1780   */\n      tag_91\n      jumpi\n        /* \"#utility.yul\":1776:1777   */\n      0x00\n        /* \"#utility.yul\":1773:1774   */\n      dup1\n        /* \"#utility.yul\":1766:1778   */\n      revert\n        /* \"#utility.yul\":1717:1780   */\n    tag_91:\n        /* \"#utility.yul\":1664:1786   */\n      pop\n      jump\t// out\n        /* \"#utility.yul\":1792:1931   */\n    tag_67:\n        /* \"#utility.yul\":1838:1843   */\n      0x00\n        /* \"#utility.yul\":1876:1882   */\n      dup2\n        /* \"#utility.yul\":1863:1883   */\n      calldataload\n        /* \"#utility.yul\":1854:1883   */\n      swap1\n      pop\n        /* \"#utility.yul\":1892:1925   */\n      tag_93\n        /* \"#utility.yul\":1919:1924   */\n      dup2\n        /* \"#utility.yul\":1892:1925   */\n      tag_66\n      jump\t// in\n    tag_93:\n        /* \"#utility.yul\":1792:1931   */\n      swap3\n      swap2\n      pop\n      pop\n      jump\t// out\n        /* \"#utility.yul\":1937:2266   */\n    tag_19:\n        /* \"#utility.yul\":1996:2002   */\n      0x00\n        /* \"#utility.yul\":2045:2047   */\n      0x20\n        /* \"#utility.yul\":2033:2042   */\n      dup3\n        /* \"#utility.yul\":2024:2031   */\n      dup5\n        /* \"#utility.yul\":2020:2043   */\n      sub\n        /* \"#utility.yul\":2016:2048   */\n      slt\n        /* \"#utility.yul\":2013:2132   */\n      iszero\n      tag_95\n      jumpi\n        /* \"#utility.yul\":2051:2130   */\n      tag_96\n      tag_64\n      jump\t// in\n    tag_96:\n        /* \"#utility.yul\":2013:2132   */\n    tag_95:\n        /* \"#utility.yul\":2171:2172   */\n      0x00\n        /* \"#utility.yul\":2196:2249   */\n      tag_97\n        /* \"#utility.yul\":2241:2248   */\n      dup5\n        /* \"#utility.yul\":2232:2238   */\n      dup3\n        /* \"#utility.yul\":2221:2230   */\n      dup6\n        /* \"#utility.yul\":2217:2239   */\n      add\n        /* \"#utility.yul\":2196:2249   */\n      tag_67\n      jump\t// in\n    tag_97:\n        /* \"#utility.yul\":2186:2249   */\n      swap2\n      pop\n        /* \"#utility.yul\":2142:2259   */\n      pop\n        /* \"#utility.yul\":1937:2266   */\n      swap3\n      swap2\n      pop\n      pop\n      jump\t// out\n        /* \"#utility.yul\":2272:2452   */\n    tag_28:\n        /* \"#utility.yul\":2320:2397   */\n      0x4e487b7100000000000000000000000000000000000000000000000000000000\n        /* \"#utility.yul\":2317:2318   */\n      0x00\n        /* \"#utility.yul\":2310:2398   */\n      mstore\n        /* \"#utility.yul\":2417:2421   */\n      0x32\n        /* \"#utility.yul\":2414:2415   */\n      0x04\n        /* \"#utility.yul\":2407:2422   */\n      mstore\n        /* \"#utility.yul\":2441:2445   */\n      0x24\n        /* \"#utility.yul\":2438:2439   */\n      0x00\n        /* \"#utility.yul\":2431:2446   */\n      revert\n        /* \"#utility.yul\":2458:2638   */\n    tag_68:\n        /* \"#utility.yul\":2506:2583   */\n      0x4e487b7100000000000000000000000000000000000000000000000000000000\n        /* \"#utility.yul\":2503:2504   */\n      0x00\n        /* \"#utility.yul\":2496:2584   */\n      mstore\n        /* \"#utility.yul\":2603:2607   */\n      0x11\n        /* \"#utility.yul\":2600:2601   */\n      0x04\n        /* \"#utility.yul\":2593:2608   */\n      mstore\n        /* \"#utility.yul\":2627:2631   */\n      0x24\n        /* \"#utility.yul\":2624:2625   */\n      0x00\n        /* \"#utility.yul\":2617:2632   */\n      revert\n        /* \"#utility.yul\":2644:3054   */\n    tag_42:\n        /* \"#utility.yul\":2684:2691   */\n      0x00\n        /* \"#utility.yul\":2707:2727   */\n      tag_101\n        /* \"#utility.yul\":2725:2726   */\n      dup3\n        /* \"#utility.yul\":2707:2727   */\n      tag_61\n      jump\t// in\n    tag_101:\n        /* \"#utility.yul\":2702:2727   */\n      swap2\n      pop\n        /* \"#utility.yul\":2741:2761   */\n      tag_102\n        /* \"#utility.yul\":2759:2760   */\n      dup4\n        /* \"#utility.yul\":2741:2761   */\n      tag_61\n      jump\t// in\n    tag_102:\n        /* \"#utility.yul\":2736:2761   */\n      swap3\n      pop\n        /* \"#utility.yul\":2796:2797   */\n      dup3\n        /* \"#utility.yul\":2793:2794   */\n      dup3\n        /* \"#utility.yul\":2789:2798   */\n      mul\n        /* \"#utility.yul\":2818:2848   */\n      tag_103\n        /* \"#utility.yul\":2836:2847   */\n      dup2\n        /* \"#utility.yul\":2818:2848   */\n      tag_61\n      jump\t// in\n    tag_103:\n        /* \"#utility.yul\":2807:2848   */\n      swap2\n      pop\n        /* \"#utility.yul\":2997:2998   */\n      dup3\n        /* \"#utility.yul\":2988:2995   */\n      dup3\n        /* \"#utility.yul\":2984:2999   */\n      div\n        /* \"#utility.yul\":2981:2982   */\n      dup5\n        /* \"#utility.yul\":2978:3000   */\n      eq\n        /* \"#utility.yul\":2958:2959   */\n      dup4\n        /* \"#utility.yul\":2951:2960   */\n      iszero\n        /* \"#utility.yul\":2931:3014   */\n      or\n        /* \"#utility.yul\":2908:3047   */\n      tag_104\n      jumpi\n        /* \"#utility.yul\":3027:3045   */\n      tag_105\n      tag_68\n      jump\t// in\n    tag_105:\n        /* \"#utility.yul\":2908:3047   */\n    tag_104:\n        /* \"#utility.yul\":2692:3054   */\n      pop\n        /* \"#utility.yul\":2644:3054   */\n      swap3\n      swap2\n      pop\n      pop\n      jump\t// out\n        /* \"#utility.yul\":3060:3293   */\n    tag_44:\n        /* \"#utility.yul\":3099:3102   */\n      0x00\n        /* \"#utility.yul\":3122:3146   */\n      tag_107\n        /* \"#utility.yul\":3140:3145   */\n      dup3\n        /* \"#utility.yul\":3122:3146   */\n      tag_61\n      jump\t// in\n    tag_107:\n        /* \"#utility.yul\":3113:3146   */\n      swap2\n      pop\n        /* \"#utility.yul\":3168:3234   */\n      0xffffffffffffffffffffffffffffffffffffffffffffffffffffffffffffffff\n        /* \"#utility.yul\":3161:3166   */\n      dup3\n        /* \"#utility.yul\":3158:3235   */\n      sub\n        /* \"#utility.yul\":3155:3258   */\n      tag_108\n      jumpi\n        /* \"#utility.yul\":3238:3256   */\n      tag_109\n      tag_68\n      jump\t// in\n    tag_109:\n        /* \"#utility.yul\":3155:3258   */\n    tag_108:\n        /* \"#utility.yul\":3285:3286   */\n      0x01\n        /* \"#utility.yul\":3278:3283   */\n      dup3\n        /* \"#utility.yul\":3274:3287   */\n      add\n        /* \"#utility.yul\":3267:3287   */\n      swap1\n      pop\n        /* \"#utility.yul\":3060:3293   */\n      swap2\n      swap1\n      pop\n      jump\t// out\n        /* \"#utility.yul\":3299:3490   */\n    tag_46:\n        /* \"#utility.yul\":3339:3342   */\n      0x00\n        /* \"#utility.yul\":3358:3378   */\n      tag_111\n        /* \"#utility.yul\":3376:3377   */\n      dup3\n        /* \"#utility.yul\":3358:3378   */\n      tag_61\n      jump\t// in\n    tag_111:\n        /* \"#utility.yul\":3353:3378   */\n      swap2\n      pop\n        /* \"#utility.yul\":3392:3412   */\n      tag_112\n        /* \"#utility.yul\":3410:3411   */\n      dup4\n        /* \"#utility.yul\":3392:3412   */\n      tag_61\n      jump\t// in\n    tag_112:\n        /* \"#utility.yul\":3387:3412   */\n      swap3\n      pop\n        /* \"#utility.yul\":3435:3436   */\n      dup3\n        /* \"#utility.yul\":3432:3433   */\n      dup3\n        /* \"#utility.yul\":3428:3437   */\n      add\n        /* \"#utility.yul\":3421:3437   */\n      swap1\n      pop\n        /* \"#utility.yul\":3456:3459   */\n      dup1\n        /* \"#utility.yul\":3453:3454   */\n      dup3\n        /* \"#utility.yul\":3450:3460   */\n      gt\n        /* \"#utility.yul\":3447:3483   */\n      iszero\n      tag_113\n      jumpi\n        /* \"#utility.yul\":3463:3481   */\n      tag_114\n      tag_68\n      jump\t// in\n    tag_114:\n        /* \"#utility.yul\":3447:3483   */\n    tag_113:\n        /* \"#utility.yul\":3299:3490   */\n      swap3\n      swap2\n      pop\n      pop\n      jump\t// out\n\n    auxdata: 0xa26469706673582212207f4e9b6c39dbe21feb0069b3cf1a51aa15ef0aa035139a22038fa9eabe4b736664736f6c634300081a0033\n}\n",
				"bytecode": {
					"linkReferences": {},
					"object": "6080604052348015600e575f80fd5b506105068061001c5f395ff3fe608060405234801561000f575f80fd5b506004361061004a575f3560e01c806341806a131461004e57806396f6611d1461006d578063a98ce68b1461008b578063ddef5a4a14610095575b5f80fd5b6100566100c5565b60405161006492919061030a565b60405180910390f35b61007561019c565b6040516100829190610349565b60405180910390f35b61009361020d565b005b6100af60048036038101906100aa9190610390565b61026e565b6040516100bc9190610349565b60405180910390f35b5f805f5b5f80549050811015610196575f81815481106100e8576100e76103bb565b5b905f5260205f20015f9054906101000a900473ffffffffffffffffffffffffffffffffffffffff1673ffffffffffffffffffffffffffffffffffffffff163373ffffffffffffffffffffffffffffffffffffffff16036101895760015f8281548110610157576101566103bb565b5b905f5260205f20015f9054906101000a900473ffffffffffffffffffffffffffffffffffffffff169250925050610198565b80806001019150506100c9565b505b9091565b5f805f90505f600190505b600a8111610205575f600190505f600290505b8281116101e25780826101cd9190610415565b915080806101da90610456565b9150506101ba565b5080836101ef919061049d565b92505080806101fd90610456565b9150506101a7565b508091505090565b5f33908060018154018082558091505060019003905f5260205f20015f9091909190916101000a81548173ffffffffffffffffffffffffffffffffffffffff021916908373ffffffffffffffffffffffffffffffffffffffff160217905550565b5f805f90505f8390505b836064610285919061049d565b8110156102a7578082610298919061049d565b91508080600101915050610278565b5080915050919050565b5f8115159050919050565b6102c5816102b1565b82525050565b5f73ffffffffffffffffffffffffffffffffffffffff82169050919050565b5f6102f4826102cb565b9050919050565b610304816102ea565b82525050565b5f60408201905061031d5f8301856102bc565b61032a60208301846102fb565b9392505050565b5f819050919050565b61034381610331565b82525050565b5f60208201905061035c5f83018461033a565b92915050565b5f80fd5b61036f81610331565b8114610379575f80fd5b50565b5f8135905061038a81610366565b92915050565b5f602082840312156103a5576103a4610362565b5b5f6103b28482850161037c565b91505092915050565b7f4e487b71000000000000000000000000000000000000000000000000000000005f52603260045260245ffd5b7f4e487b71000000000000000000000000000000000000000000000000000000005f52601160045260245ffd5b5f61041f82610331565b915061042a83610331565b925082820261043881610331565b9150828204841483151761044f5761044e6103e8565b5b5092915050565b5f61046082610331565b91507fffffffffffffffffffffffffffffffffffffffffffffffffffffffffffffffff8203610492576104916103e8565b5b600182019050919050565b5f6104a782610331565b91506104b283610331565b92508282019050808211156104ca576104c96103e8565b5b9291505056fea26469706673582212207f4e9b6c39dbe21feb0069b3cf1a51aa15ef0aa035139a22038fa9eabe4b736664736f6c634300081a0033",
					"opcodes": "PUSH1 0x80 PUSH1 0x40 MSTORE CALLVALUE DUP1 ISZERO PUSH1 0xE JUMPI PUSH0 DUP1 REVERT JUMPDEST POP PUSH2 0x506 DUP1 PUSH2 0x1C PUSH0 CODECOPY PUSH0 RETURN INVALID PUSH1 0x80 PUSH1 0x40 MSTORE CALLVALUE DUP1 ISZERO PUSH2 0xF JUMPI PUSH0 DUP1 REVERT JUMPDEST POP PUSH1 0x4 CALLDATASIZE LT PUSH2 0x4A JUMPI PUSH0 CALLDATALOAD PUSH1 0xE0 SHR DUP1 PUSH4 0x41806A13 EQ PUSH2 0x4E JUMPI DUP1 PUSH4 0x96F6611D EQ PUSH2 0x6D JUMPI DUP1 PUSH4 0xA98CE68B EQ PUSH2 0x8B JUMPI DUP1 PUSH4 0xDDEF5A4A EQ PUSH2 0x95 JUMPI JUMPDEST PUSH0 DUP1 REVERT JUMPDEST PUSH2 0x56 PUSH2 0xC5 JUMP JUMPDEST PUSH1 0x40 MLOAD PUSH2 0x64 SWAP3 SWAP2 SWAP1 PUSH2 0x30A JUMP JUMPDEST PUSH1 0x40 MLOAD DUP1 SWAP2 SUB SWAP1 RETURN JUMPDEST PUSH2 0x75 PUSH2 0x19C JUMP JUMPDEST PUSH1 0x40 MLOAD PUSH2 0x82 SWAP2 SWAP1 PUSH2 0x349 JUMP JUMPDEST PUSH1 0x40 MLOAD DUP1 SWAP2 SUB SWAP1 RETURN JUMPDEST PUSH2 0x93 PUSH2 0x20D JUMP JUMPDEST STOP JUMPDEST PUSH2 0xAF PUSH1 0x4 DUP1 CALLDATASIZE SUB DUP2 ADD SWAP1 PUSH2 0xAA SWAP2 SWAP1 PUSH2 0x390 JUMP JUMPDEST PUSH2 0x26E JUMP JUMPDEST PUSH1 0x40 MLOAD PUSH2 0xBC SWAP2 SWAP1 PUSH2 0x349 JUMP JUMPDEST PUSH1 0x40 MLOAD DUP1 SWAP2 SUB SWAP1 RETURN JUMPDEST PUSH0 DUP1 PUSH0 JUMPDEST PUSH0 DUP1 SLOAD SWAP1 POP DUP2 LT ISZERO PUSH2 0x196 JUMPI PUSH0 DUP2 DUP2 SLOAD DUP2 LT PUSH2 0xE8 JUMPI PUSH2 0xE7 PUSH2 0x3BB JUMP JUMPDEST JUMPDEST SWAP1 PUSH0 MSTORE PUSH1 0x20 PUSH0 KECCAK256 ADD PUSH0 SWAP1 SLOAD SWAP1 PUSH2 0x100 EXP SWAP1 DIV PUSH20 0xFFFFFFFFFFFFFFFFFFFFFFFFFFFFFFFFFFFFFFFF AND PUSH20 0xFFFFFFFFFFFFFFFFFFFFFFFFFFFFFFFFFFFFFFFF AND CALLER PUSH20 0xFFFFFFFFFFFFFFFFFFFFFFFFFFFFFFFFFFFFFFFF AND SUB PUSH2 0x189 JUMPI PUSH1 0x1 PUSH0 DUP3 DUP2 SLOAD DUP2 LT PUSH2 0x157 JUMPI PUSH2 0x156 PUSH2 0x3BB JUMP JUMPDEST JUMPDEST SWAP1 PUSH0 MSTORE PUSH1 0x20 PUSH0 KECCAK256 ADD PUSH0 SWAP1 SLOAD SWAP1 PUSH2 0x100 EXP SWAP1 DIV PUSH20 0xFFFFFFFFFFFFFFFFFFFFFFFFFFFFFFFFFFFFFFFF AND SWAP3 POP SWAP3 POP POP PUSH2 0x198 JUMP JUMPDEST DUP1 DUP1 PUSH1 0x1 ADD SWAP2 POP POP PUSH2 0xC9 JUMP JUMPDEST POP JUMPDEST SWAP1 SWAP2 JUMP JUMPDEST PUSH0 DUP1 PUSH0 SWAP1 POP PUSH0 PUSH1 0x1 SWAP1 POP JUMPDEST PUSH1 0xA DUP2 GT PUSH2 0x205 JUMPI PUSH0 PUSH1 0x1 SWAP1 POP PUSH0 PUSH1 0x2 SWAP1 POP JUMPDEST DUP3 DUP2 GT PUSH2 0x1E2 JUMPI DUP1 DUP3 PUSH2 0x1CD SWAP2 SWAP1 PUSH2 0x415 JUMP JUMPDEST SWAP2 POP DUP1 DUP1 PUSH2 0x1DA SWAP1 PUSH2 0x456 JUMP JUMPDEST SWAP2 POP POP PUSH2 0x1BA JUMP JUMPDEST POP DUP1 DUP4 PUSH2 0x1EF SWAP2 SWAP1 PUSH2 0x49D JUMP JUMPDEST SWAP3 POP POP DUP1 DUP1 PUSH2 0x1FD SWAP1 PUSH2 0x456 JUMP JUMPDEST SWAP2 POP POP PUSH2 0x1A7 JUMP JUMPDEST POP DUP1 SWAP2 POP POP SWAP1 JUMP JUMPDEST PUSH0 CALLER SWAP1 DUP1 PUSH1 0x1 DUP2 SLOAD ADD DUP1 DUP3 SSTORE DUP1 SWAP2 POP POP PUSH1 0x1 SWAP1 SUB SWAP1 PUSH0 MSTORE PUSH1 0x20 PUSH0 KECCAK256 ADD PUSH0 SWAP1 SWAP2 SWAP1 SWAP2 SWAP1 SWAP2 PUSH2 0x100 EXP DUP2 SLOAD DUP2 PUSH20 0xFFFFFFFFFFFFFFFFFFFFFFFFFFFFFFFFFFFFFFFF MUL NOT AND SWAP1 DUP4 PUSH20 0xFFFFFFFFFFFFFFFFFFFFFFFFFFFFFFFFFFFFFFFF AND MUL OR SWAP1 SSTORE POP JUMP JUMPDEST PUSH0 DUP1 PUSH0 SWAP1 POP PUSH0 DUP4 SWAP1 POP JUMPDEST DUP4 PUSH1 0x64 PUSH2 0x285 SWAP2 SWAP1 PUSH2 0x49D JUMP JUMPDEST DUP2 LT ISZERO PUSH2 0x2A7 JUMPI DUP1 DUP3 PUSH2 0x298 SWAP2 SWAP1 PUSH2 0x49D JUMP JUMPDEST SWAP2 POP DUP1 DUP1 PUSH1 0x1 ADD SWAP2 POP POP PUSH2 0x278 JUMP JUMPDEST POP DUP1 SWAP2 POP POP SWAP2 SWAP1 POP JUMP JUMPDEST PUSH0 DUP2 ISZERO ISZERO SWAP1 POP SWAP2 SWAP1 POP JUMP JUMPDEST PUSH2 0x2C5 DUP2 PUSH2 0x2B1 JUMP JUMPDEST DUP3 MSTORE POP POP JUMP JUMPDEST PUSH0 PUSH20 0xFFFFFFFFFFFFFFFFFFFFFFFFFFFFFFFFFFFFFFFF DUP3 AND SWAP1 POP SWAP2 SWAP1 POP JUMP JUMPDEST PUSH0 PUSH2 0x2F4 DUP3 PUSH2 0x2CB JUMP JUMPDEST SWAP1 POP SWAP2 SWAP1 POP JUMP JUMPDEST PUSH2 0x304 DUP2 PUSH2 0x2EA JUMP JUMPDEST DUP3 MSTORE POP POP JUMP JUMPDEST PUSH0 PUSH1 0x40 DUP3 ADD SWAP1 POP PUSH2 0x31D PUSH0 DUP4 ADD DUP6 PUSH2 0x2BC JUMP JUMPDEST PUSH2 0x32A PUSH1 0x20 DUP4 ADD DUP5 PUSH2 0x2FB JUMP JUMPDEST SWAP4 SWAP3 POP POP POP JUMP JUMPDEST PUSH0 DUP2 SWAP1 POP SWAP2 SWAP1 POP JUMP JUMPDEST PUSH2 0x343 DUP2 PUSH2 0x331 JUMP JUMPDEST DUP3 MSTORE POP POP JUMP JUMPDEST PUSH0 PUSH1 0x20 DUP3 ADD SWAP1 POP PUSH2 0x35C PUSH0 DUP4 ADD DUP5 PUSH2 0x33A JUMP JUMPDEST SWAP3 SWAP2 POP POP JUMP JUMPDEST PUSH0 DUP1 REVERT JUMPDEST PUSH2 0x36F DUP2 PUSH2 0x331 JUMP JUMPDEST DUP2 EQ PUSH2 0x379 JUMPI PUSH0 DUP1 REVERT JUMPDEST POP JUMP JUMPDEST PUSH0 DUP2 CALLDATALOAD SWAP1 POP PUSH2 0x38A DUP2 PUSH2 0x366 JUMP JUMPDEST SWAP3 SWAP2 POP POP JUMP JUMPDEST PUSH0 PUSH1 0x20 DUP3 DUP5 SUB SLT ISZERO PUSH2 0x3A5 JUMPI PUSH2 0x3A4 PUSH2 0x362 JUMP JUMPDEST JUMPDEST PUSH0 PUSH2 0x3B2 DUP5 DUP3 DUP6 ADD PUSH2 0x37C JUMP JUMPDEST SWAP2 POP POP SWAP3 SWAP2 POP POP JUMP JUMPDEST PUSH32 0x4E487B7100000000000000000000000000000000000000000000000000000000 PUSH0 MSTORE PUSH1 0x32 PUSH1 0x4 MSTORE PUSH1 0x24 PUSH0 REVERT JUMPDEST PUSH32 0x4E487B7100000000000000000000000000000000000000000000000000000000 PUSH0 MSTORE PUSH1 0x11 PUSH1 0x4 MSTORE PUSH1 0x24 PUSH0 REVERT JUMPDEST PUSH0 PUSH2 0x41F DUP3 PUSH2 0x331 JUMP JUMPDEST SWAP2 POP PUSH2 0x42A DUP4 PUSH2 0x331 JUMP JUMPDEST SWAP3 POP DUP3 DUP3 MUL PUSH2 0x438 DUP2 PUSH2 0x331 JUMP JUMPDEST SWAP2 POP DUP3 DUP3 DIV DUP5 EQ DUP4 ISZERO OR PUSH2 0x44F JUMPI PUSH2 0x44E PUSH2 0x3E8 JUMP JUMPDEST JUMPDEST POP SWAP3 SWAP2 POP POP JUMP JUMPDEST PUSH0 PUSH2 0x460 DUP3 PUSH2 0x331 JUMP JUMPDEST SWAP2 POP PUSH32 0xFFFFFFFFFFFFFFFFFFFFFFFFFFFFFFFFFFFFFFFFFFFFFFFFFFFFFFFFFFFFFFFF DUP3 SUB PUSH2 0x492 JUMPI PUSH2 0x491 PUSH2 0x3E8 JUMP JUMPDEST JUMPDEST PUSH1 0x1 DUP3 ADD SWAP1 POP SWAP2 SWAP1 POP JUMP JUMPDEST PUSH0 PUSH2 0x4A7 DUP3 PUSH2 0x331 JUMP JUMPDEST SWAP2 POP PUSH2 0x4B2 DUP4 PUSH2 0x331 JUMP JUMPDEST SWAP3 POP DUP3 DUP3 ADD SWAP1 POP DUP1 DUP3 GT ISZERO PUSH2 0x4CA JUMPI PUSH2 0x4C9 PUSH2 0x3E8 JUMP JUMPDEST JUMPDEST SWAP3 SWAP2 POP POP JUMP INVALID LOG2 PUSH5 0x6970667358 0x22 SLT KECCAK256 PUSH32 0x4E9B6C39DBE21FEB0069B3CF1A51AA15EF0AA035139A22038FA9EABE4B736664 PUSH20 0x6F6C634300081A00330000000000000000000000 "
				},
				"gasEstimates": {
					"creation": {
						"codeDepositCost": "257200",
						"executionCost": "298",
						"totalCost": "257498"
					},
					"external": {
						"asociar()": "48739",
						"comprobarAsociacion()": "infinite",
						"suma(uint256)": "infinite",
						"sumaFactorial()": "infinite"
					}
				},
				"methodIdentifiers": {
					"asociar()": "a98ce68b",
					"comprobarAsociacion()": "41806a13",
					"suma(uint256)": "ddef5a4a",
					"sumaFactorial()": "96f6611d"
				}
			},
			"storageLayout": {
				"storage": [
					{
						"astId": 39,
						"contract": "BLOQUE 1 - Conceptos básicos de Solidity/Tema 6 - Bucles y condicionales/bucle_for.sol:bucle_for",
						"label": "direcciones",
						"offset": 0,
						"slot": "0",
						"type": "t_array(t_address)dyn_storage"
					}
				],
				"types": {
					"t_address": {
						"encoding": "inplace",
						"label": "address",
						"numberOfBytes": "20"
					},
					"t_array(t_address)dyn_storage": {
						"base": "t_address",
						"encoding": "dynamic_array",
						"label": "address[]",
						"numberOfBytes": "32"
					}
				}
			},
			"userdoc": {
				"kind": "user",
				"methods": {},
				"version": 1
			}
		}
	}
}